{
	"data": {
		"bytecode": {
			"linkReferences": {},
			"object": "608060405234801561000f575f5ffd5b50604051613347380380613347833981810160405281019061003191906101da565b604051806080016040528060428152602001613305604291396100598161006060201b60201c565b5050610500565b806002908161006f9190610431565b5050565b5f604051905090565b5f5ffd5b5f5ffd5b5f5ffd5b5f5ffd5b5f601f19601f8301169050919050565b7f4e487b71000000000000000000000000000000000000000000000000000000005f52604160045260245ffd5b6100d28261008c565b810181811067ffffffffffffffff821117156100f1576100f061009c565b5b80604052505050565b5f610103610073565b905061010f82826100c9565b919050565b5f67ffffffffffffffff82111561012e5761012d61009c565b5b6101378261008c565b9050602081019050919050565b5f5b83811015610161578082015181840152602081019050610146565b5f8484015250505050565b5f61017e61017984610114565b6100fa565b90508281526020810184848401111561019a57610199610088565b5b6101a5848285610144565b509392505050565b5f82601f8301126101c1576101c0610084565b5b81516101d184826020860161016c565b91505092915050565b5f602082840312156101ef576101ee61007c565b5b5f82015167ffffffffffffffff81111561020c5761020b610080565b5b610218848285016101ad565b91505092915050565b5f81519050919050565b7f4e487b71000000000000000000000000000000000000000000000000000000005f52602260045260245ffd5b5f600282049050600182168061026f57607f821691505b6020821081036102825761028161022b565b5b50919050565b5f819050815f5260205f209050919050565b5f6020601f8301049050919050565b5f82821b905092915050565b5f600883026102e47fffffffffffffffffffffffffffffffffffffffffffffffffffffffffffffffff826102a9565b6102ee86836102a9565b95508019841693508086168417925050509392505050565b5f819050919050565b5f819050919050565b5f61033261032d61032884610306565b61030f565b610306565b9050919050565b5f819050919050565b61034b83610318565b61035f61035782610339565b8484546102b5565b825550505050565b5f5f905090565b610376610367565b610381818484610342565b505050565b5b818110156103a4576103995f8261036e565b600181019050610387565b5050565b601f8211156103e9576103ba81610288565b6103c38461029a565b810160208510156103d2578190505b6103e66103de8561029a565b830182610386565b50505b505050565b5f82821c905092915050565b5f6104095f19846008026103ee565b1980831691505092915050565b5f61042183836103fa565b9150826002028217905092915050565b61043a82610221565b67ffffffffffffffff8111156104535761045261009c565b5b61045d8254610258565b6104688282856103a8565b5f60209050601f831160018114610499575f8415610487578287015190505b6104918582610416565b8655506104f8565b601f1984166104a786610288565b5f5b828110156104ce578489015182556001820191506020850194506020810190506104a9565b868310156104eb57848901516104e7601f8916826103fa565b8355505b6001600288020188555050505b505050505050565b612df88061050d5f395ff3fe608060405234801561000f575f5ffd5b5060043610610128575f3560e01c80635e05b02f116100ab578063a82f911f1161006f578063a82f911f14610362578063b390c0ab14610392578063dabaf424146103ae578063e985e9c5146103cc578063f242432a146103fc57610128565b80635e05b02f146102ae578063869f7594146102ca578063919956ef146102fa578063a1db97821461032a578063a22cb4651461034657610128565b80630e89341c116100f25780630e89341c146101e45780632eb2c2d6146102145780634c64c030146102305780634e1273f41461024e57806354e00c431461027e57610128565b80629a9b7b1461012c578062fdd58e1461014a5780630197d9721461017a57806301ffc9a71461019857806308dc9f42146101c8575b5f5ffd5b610134610418565b6040516101419190611b59565b60405180910390f35b610164600480360381019061015f9190611c07565b61041e565b6040516101719190611b59565b60405180910390f35b610182610473565b60405161018f9190611b59565b60405180910390f35b6101b260048036038101906101ad9190611c9a565b61047a565b6040516101bf9190611cdf565b60405180910390f35b6101e260048036038101906101dd9190611e34565b61055b565b005b6101fe60048036038101906101f99190611ea0565b610656565b60405161020b9190611f45565b60405180910390f35b61022e60048036038101906102299190612029565b6106e8565b005b61023861078f565b6040516102459190611b59565b60405180910390f35b610268600480360381019061026391906121b4565b610796565b60405161027591906122e1565b60405180910390f35b61029860048036038101906102939190611ea0565b6108a0565b6040516102a59190611b59565b60405180910390f35b6102c860048036038101906102c39190611e34565b6108b5565b005b6102e460048036038101906102df9190611ea0565b6109ae565b6040516102f19190611b59565b60405180910390f35b610314600480360381019061030f9190611ea0565b6109c3565b6040516103219190611b59565b60405180910390f35b610344600480360381019061033f9190611c07565b6109d8565b005b610360600480360381019061035b919061232b565b610c5d565b005b61037c60048036038101906103779190611ea0565b610c73565b6040516103899190611b59565b60405180910390f35b6103ac60048036038101906103a79190612369565b610c88565b005b6103b6610d0a565b6040516103c39190611b59565b60405180910390f35b6103e660048036038101906103e191906123a7565b610d0f565b6040516103f39190611cdf565b60405180910390f35b610416600480360381019061041191906123e5565b610d9d565b005b60035481565b5f5f5f8381526020019081526020015f205f8473ffffffffffffffffffffffffffffffffffffffff1673ffffffffffffffffffffffffffffffffffffffff1681526020019081526020015f2054905092915050565b6276a70081565b5f7fd9b67a26000000000000000000000000000000000000000000000000000000007bffffffffffffffffffffffffffffffffffffffffffffffffffffffff1916827bffffffffffffffffffffffffffffffffffffffffffffffffffffffff1916148061054457507f0e89341c000000000000000000000000000000000000000000000000000000007bffffffffffffffffffffffffffffffffffffffffffffffffffffffff1916827bffffffffffffffffffffffffffffffffffffffffffffffffffffffff1916145b80610554575061055382610e44565b5b9050919050565b5f60045f8581526020019081526020015f2054116105ae576040517f08c379a00000000000000000000000000000000000000000000000000000000081526004016105a5906124c2565b60405180910390fd5b60045f8481526020019081526020015f20548260055f8681526020019081526020015f20546105dd919061250d565b111561061e576040517f08c379a00000000000000000000000000000000000000000000000000000000081526004016106159061258a565b60405180910390fd5b8160055f8581526020019081526020015f205f82825461063e919061250d565b9250508190555061065133848484610ead565b505050565b606060028054610665906125d5565b80601f0160208091040260200160405190810160405280929190818152602001828054610691906125d5565b80156106dc5780601f106106b3576101008083540402835291602001916106dc565b820191905f5260205f20905b8154815290600101906020018083116106bf57829003601f168201915b50505050509050919050565b5f6106f1610f42565b90508073ffffffffffffffffffffffffffffffffffffffff168673ffffffffffffffffffffffffffffffffffffffff161415801561073657506107348682610d0f565b155b1561077a5780866040517fe237d922000000000000000000000000000000000000000000000000000000008152600401610771929190612614565b60405180910390fd5b6107878686868686610f49565b505050505050565b62278d0081565b606081518351146107e257815183516040517f5b0599910000000000000000000000000000000000000000000000000000000081526004016107d992919061263b565b60405180910390fd5b5f835167ffffffffffffffff8111156107fe576107fd611d10565b5b60405190808252806020026020018201604052801561082c5781602001602082028036833780820191505090505b5090505f5f90505b84518110156108955761086b610853828761103d90919063ffffffff16565b610866838761105090919063ffffffff16565b61041e565b82828151811061087e5761087d612662565b5b602002602001018181525050806001019050610834565b508091505092915050565b6007602052805f5260405f205f915090505481565b5f82116108f7576040517f08c379a00000000000000000000000000000000000000000000000000000000081526004016108ee906126ff565b60405180910390fd5b8183111561093a576040517f08c379a00000000000000000000000000000000000000000000000000000000081526004016109319061278d565b60405180910390fd5b5f60035f8154610949906127ab565b91905081905590508260045f8381526020019081526020015f20819055508360055f8381526020019081526020015f20819055504260065f8381526020019081526020015f20819055505f8411156109a8576109a733828685610ead565b5b50505050565b6004602052805f5260405f205f915090505481565b6005602052805f5260405f205f915090505481565b5f6109e3338361041e565b11610a23576040517f08c379a0000000000000000000000000000000000000000000000000000000008152600401610a1a90612862565b60405180910390fd5b426276a70060065f8481526020019081526020015f2054610a44919061250d565b1115610a85576040517f08c379a0000000000000000000000000000000000000000000000000000000008152600401610a7c906128ca565b60405180910390fd5b4262278d0060075f8481526020019081526020015f2054610aa6919061250d565b1115610ae7576040517f08c379a0000000000000000000000000000000000000000000000000000000008152600401610ade90612958565b60405180910390fd5b5f8290505f8173ffffffffffffffffffffffffffffffffffffffff166370a08231306040518263ffffffff1660e01b8152600401610b259190612976565b602060405180830381865afa158015610b40573d5f5f3e3d5ffd5b505050506040513d601f19601f82011682018060405250810190610b6491906129a3565b90505f6064600a83610b7691906129ce565b610b809190612a3c565b90505f8111610bc4576040517f08c379a0000000000000000000000000000000000000000000000000000000008152600401610bbb90612adc565b60405180910390fd5b4260075f8681526020019081526020015f20819055508273ffffffffffffffffffffffffffffffffffffffff1663a9059cbb33836040518363ffffffff1660e01b8152600401610c15929190612afa565b6020604051808303815f875af1158015610c31573d5f5f3e3d5ffd5b505050506040513d601f19601f82011682018060405250810190610c559190612b35565b505050505050565b610c6f610c68610f42565b8383611063565b5050565b6006602052805f5260405f205f915090505481565b80610c93338461041e565b1015610cd4576040517f08c379a0000000000000000000000000000000000000000000000000000000008152600401610ccb90612baa565b60405180910390fd5b610cdf3383836111cc565b8060055f8481526020019081526020015f205f828254610cff9190612bc8565b925050819055505050565b600a81565b5f60015f8473ffffffffffffffffffffffffffffffffffffffff1673ffffffffffffffffffffffffffffffffffffffff1681526020019081526020015f205f8373ffffffffffffffffffffffffffffffffffffffff1673ffffffffffffffffffffffffffffffffffffffff1681526020019081526020015f205f9054906101000a900460ff16905092915050565b5f610da6610f42565b90508073ffffffffffffffffffffffffffffffffffffffff168673ffffffffffffffffffffffffffffffffffffffff1614158015610deb5750610de98682610d0f565b155b15610e2f5780866040517fe237d922000000000000000000000000000000000000000000000000000000008152600401610e26929190612614565b60405180910390fd5b610e3c868686868661126e565b505050505050565b5f7f01ffc9a7000000000000000000000000000000000000000000000000000000007bffffffffffffffffffffffffffffffffffffffffffffffffffffffff1916827bffffffffffffffffffffffffffffffffffffffffffffffffffffffff1916149050919050565b5f73ffffffffffffffffffffffffffffffffffffffff168473ffffffffffffffffffffffffffffffffffffffff1603610f1d575f6040517f57f447ce000000000000000000000000000000000000000000000000000000008152600401610f149190612976565b60405180910390fd5b5f5f610f298585611374565b91509150610f3a5f878484876113a4565b505050505050565b5f33905090565b5f73ffffffffffffffffffffffffffffffffffffffff168473ffffffffffffffffffffffffffffffffffffffff1603610fb9575f6040517f57f447ce000000000000000000000000000000000000000000000000000000008152600401610fb09190612976565b60405180910390fd5b5f73ffffffffffffffffffffffffffffffffffffffff168573ffffffffffffffffffffffffffffffffffffffff1603611029575f6040517f01a835140000000000000000000000000000000000000000000000000000000081526004016110209190612976565b60405180910390fd5b61103685858585856113a4565b5050505050565b5f60208202602084010151905092915050565b5f60208202602084010151905092915050565b5f73ffffffffffffffffffffffffffffffffffffffff168273ffffffffffffffffffffffffffffffffffffffff16036110d3575f6040517fced3e1000000000000000000000000000000000000000000000000000000000081526004016110ca9190612976565b60405180910390fd5b8060015f8573ffffffffffffffffffffffffffffffffffffffff1673ffffffffffffffffffffffffffffffffffffffff1681526020019081526020015f205f8473ffffffffffffffffffffffffffffffffffffffff1673ffffffffffffffffffffffffffffffffffffffff1681526020019081526020015f205f6101000a81548160ff0219169083151502179055508173ffffffffffffffffffffffffffffffffffffffff168373ffffffffffffffffffffffffffffffffffffffff167f17307eab39ab6107e8899845ad3d59bd9653f200f220920489ca2b5937696c31836040516111bf9190611cdf565b60405180910390a3505050565b5f73ffffffffffffffffffffffffffffffffffffffff168373ffffffffffffffffffffffffffffffffffffffff160361123c575f6040517f01a835140000000000000000000000000000000000000000000000000000000081526004016112339190612976565b60405180910390fd5b5f5f6112488484611374565b91509150611267855f848460405180602001604052805f8152506113a4565b5050505050565b5f73ffffffffffffffffffffffffffffffffffffffff168473ffffffffffffffffffffffffffffffffffffffff16036112de575f6040517f57f447ce0000000000000000000000000000000000000000000000000000000081526004016112d59190612976565b60405180910390fd5b5f73ffffffffffffffffffffffffffffffffffffffff168573ffffffffffffffffffffffffffffffffffffffff160361134e575f6040517f01a835140000000000000000000000000000000000000000000000000000000081526004016113459190612976565b60405180910390fd5b5f5f61135a8585611374565b9150915061136b87878484876113a4565b50505050505050565b60608060405191506001825283602083015260408201905060018152826020820152604081016040529250929050565b6113b085858585611450565b5f73ffffffffffffffffffffffffffffffffffffffff168473ffffffffffffffffffffffffffffffffffffffff1614611449575f6113ec610f42565b90506001845103611438575f61140b5f8661105090919063ffffffff16565b90505f6114215f8661105090919063ffffffff16565b90506114318389898585896117e3565b5050611447565b611446818787878787611992565b5b505b5050505050565b805182511461149a57815181516040517f5b05999100000000000000000000000000000000000000000000000000000000815260040161149192919061263b565b60405180910390fd5b5f6114a3610f42565b90505f5f90505b83518110156116a2575f6114c7828661105090919063ffffffff16565b90505f6114dd838661105090919063ffffffff16565b90505f73ffffffffffffffffffffffffffffffffffffffff168873ffffffffffffffffffffffffffffffffffffffff1614611600575f5f5f8481526020019081526020015f205f8a73ffffffffffffffffffffffffffffffffffffffff1673ffffffffffffffffffffffffffffffffffffffff1681526020019081526020015f20549050818110156115ac57888183856040517f03dee4c50000000000000000000000000000000000000000000000000000000081526004016115a39493929190612bfb565b60405180910390fd5b8181035f5f8581526020019081526020015f205f8b73ffffffffffffffffffffffffffffffffffffffff1673ffffffffffffffffffffffffffffffffffffffff1681526020019081526020015f2081905550505b5f73ffffffffffffffffffffffffffffffffffffffff168773ffffffffffffffffffffffffffffffffffffffff161461169557805f5f8481526020019081526020015f205f8973ffffffffffffffffffffffffffffffffffffffff1673ffffffffffffffffffffffffffffffffffffffff1681526020019081526020015f205f82825461168d919061250d565b925050819055505b50508060010190506114aa565b50600183510361175d575f6116c05f8561105090919063ffffffff16565b90505f6116d65f8561105090919063ffffffff16565b90508573ffffffffffffffffffffffffffffffffffffffff168773ffffffffffffffffffffffffffffffffffffffff168473ffffffffffffffffffffffffffffffffffffffff167fc3d58168c5ae7397731d063d5bbf3d657854427343f4c083240f7aacaa2d0f62858560405161174e92919061263b565b60405180910390a450506117dc565b8373ffffffffffffffffffffffffffffffffffffffff168573ffffffffffffffffffffffffffffffffffffffff168273ffffffffffffffffffffffffffffffffffffffff167f4a39dc06d4c0dbc64b70af90fd698a233a518aa5d07e595d983b8c0526c8f7fb86866040516117d3929190612c3e565b60405180910390a45b5050505050565b5f8473ffffffffffffffffffffffffffffffffffffffff163b111561198a578373ffffffffffffffffffffffffffffffffffffffff1663f23a6e6187878686866040518663ffffffff1660e01b8152600401611843959493929190612cc5565b6020604051808303815f875af192505050801561187e57506040513d601f19601f8201168201806040525081019061187b9190612d31565b60015b6118ff573d805f81146118ac576040519150601f19603f3d011682016040523d82523d5f602084013e6118b1565b606091505b505f8151036118f757846040517f57f447ce0000000000000000000000000000000000000000000000000000000081526004016118ee9190612976565b60405180910390fd5b805181602001fd5b63f23a6e6160e01b7bffffffffffffffffffffffffffffffffffffffffffffffffffffffff1916817bffffffffffffffffffffffffffffffffffffffffffffffffffffffff19161461198857846040517f57f447ce00000000000000000000000000000000000000000000000000000000815260040161197f9190612976565b60405180910390fd5b505b505050505050565b5f8473ffffffffffffffffffffffffffffffffffffffff163b1115611b39578373ffffffffffffffffffffffffffffffffffffffff1663bc197c8187878686866040518663ffffffff1660e01b81526004016119f2959493929190612d5c565b6020604051808303815f875af1925050508015611a2d57506040513d601f19601f82011682018060405250810190611a2a9190612d31565b60015b611aae573d805f8114611a5b576040519150601f19603f3d011682016040523d82523d5f602084013e611a60565b606091505b505f815103611aa657846040517f57f447ce000000000000000000000000000000000000000000000000000000008152600401611a9d9190612976565b60405180910390fd5b805181602001fd5b63bc197c8160e01b7bffffffffffffffffffffffffffffffffffffffffffffffffffffffff1916817bffffffffffffffffffffffffffffffffffffffffffffffffffffffff191614611b3757846040517f57f447ce000000000000000000000000000000000000000000000000000000008152600401611b2e9190612976565b60405180910390fd5b505b505050505050565b5f819050919050565b611b5381611b41565b82525050565b5f602082019050611b6c5f830184611b4a565b92915050565b5f604051905090565b5f5ffd5b5f5ffd5b5f73ffffffffffffffffffffffffffffffffffffffff82169050919050565b5f611bac82611b83565b9050919050565b611bbc81611ba2565b8114611bc6575f5ffd5b50565b5f81359050611bd781611bb3565b92915050565b611be681611b41565b8114611bf0575f5ffd5b50565b5f81359050611c0181611bdd565b92915050565b5f5f60408385031215611c1d57611c1c611b7b565b5b5f611c2a85828601611bc9565b9250506020611c3b85828601611bf3565b9150509250929050565b5f7fffffffff0000000000000000000000000000000000000000000000000000000082169050919050565b611c7981611c45565b8114611c83575f5ffd5b50565b5f81359050611c9481611c70565b92915050565b5f60208284031215611caf57611cae611b7b565b5b5f611cbc84828501611c86565b91505092915050565b5f8115159050919050565b611cd981611cc5565b82525050565b5f602082019050611cf25f830184611cd0565b92915050565b5f5ffd5b5f5ffd5b5f601f19601f8301169050919050565b7f4e487b71000000000000000000000000000000000000000000000000000000005f52604160045260245ffd5b611d4682611d00565b810181811067ffffffffffffffff82111715611d6557611d64611d10565b5b80604052505050565b5f611d77611b72565b9050611d838282611d3d565b919050565b5f67ffffffffffffffff821115611da257611da1611d10565b5b611dab82611d00565b9050602081019050919050565b828183375f83830152505050565b5f611dd8611dd384611d88565b611d6e565b905082815260208101848484011115611df457611df3611cfc565b5b611dff848285611db8565b509392505050565b5f82601f830112611e1b57611e1a611cf8565b5b8135611e2b848260208601611dc6565b91505092915050565b5f5f5f60608486031215611e4b57611e4a611b7b565b5b5f611e5886828701611bf3565b9350506020611e6986828701611bf3565b925050604084013567ffffffffffffffff811115611e8a57611e89611b7f565b5b611e9686828701611e07565b9150509250925092565b5f60208284031215611eb557611eb4611b7b565b5b5f611ec284828501611bf3565b91505092915050565b5f81519050919050565b5f82825260208201905092915050565b5f5b83811015611f02578082015181840152602081019050611ee7565b5f8484015250505050565b5f611f1782611ecb565b611f218185611ed5565b9350611f31818560208601611ee5565b611f3a81611d00565b840191505092915050565b5f6020820190508181035f830152611f5d8184611f0d565b905092915050565b5f67ffffffffffffffff821115611f7f57611f7e611d10565b5b602082029050602081019050919050565b5f5ffd5b5f611fa6611fa184611f65565b611d6e565b90508083825260208201905060208402830185811115611fc957611fc8611f90565b5b835b81811015611ff25780611fde8882611bf3565b845260208401935050602081019050611fcb565b5050509392505050565b5f82601f8301126120105761200f611cf8565b5b8135612020848260208601611f94565b91505092915050565b5f5f5f5f5f60a0868803121561204257612041611b7b565b5b5f61204f88828901611bc9565b955050602061206088828901611bc9565b945050604086013567ffffffffffffffff81111561208157612080611b7f565b5b61208d88828901611ffc565b935050606086013567ffffffffffffffff8111156120ae576120ad611b7f565b5b6120ba88828901611ffc565b925050608086013567ffffffffffffffff8111156120db576120da611b7f565b5b6120e788828901611e07565b9150509295509295909350565b5f67ffffffffffffffff82111561210e5761210d611d10565b5b602082029050602081019050919050565b5f61213161212c846120f4565b611d6e565b9050808382526020820190506020840283018581111561215457612153611f90565b5b835b8181101561217d57806121698882611bc9565b845260208401935050602081019050612156565b5050509392505050565b5f82601f83011261219b5761219a611cf8565b5b81356121ab84826020860161211f565b91505092915050565b5f5f604083850312156121ca576121c9611b7b565b5b5f83013567ffffffffffffffff8111156121e7576121e6611b7f565b5b6121f385828601612187565b925050602083013567ffffffffffffffff81111561221457612213611b7f565b5b61222085828601611ffc565b9150509250929050565b5f81519050919050565b5f82825260208201905092915050565b5f819050602082019050919050565b61225c81611b41565b82525050565b5f61226d8383612253565b60208301905092915050565b5f602082019050919050565b5f61228f8261222a565b6122998185612234565b93506122a483612244565b805f5b838110156122d45781516122bb8882612262565b97506122c683612279565b9250506001810190506122a7565b5085935050505092915050565b5f6020820190508181035f8301526122f98184612285565b905092915050565b61230a81611cc5565b8114612314575f5ffd5b50565b5f8135905061232581612301565b92915050565b5f5f6040838503121561234157612340611b7b565b5b5f61234e85828601611bc9565b925050602061235f85828601612317565b9150509250929050565b5f5f6040838503121561237f5761237e611b7b565b5b5f61238c85828601611bf3565b925050602061239d85828601611bf3565b9150509250929050565b5f5f604083850312156123bd576123bc611b7b565b5b5f6123ca85828601611bc9565b92505060206123db85828601611bc9565b9150509250929050565b5f5f5f5f5f60a086880312156123fe576123fd611b7b565b5b5f61240b88828901611bc9565b955050602061241c88828901611bc9565b945050604061242d88828901611bf3565b935050606061243e88828901611bf3565b925050608086013567ffffffffffffffff81111561245f5761245e611b7f565b5b61246b88828901611e07565b9150509295509295909350565b7f546f6b656e20494420646f6573206e6f742065786973740000000000000000005f82015250565b5f6124ac601783611ed5565b91506124b782612478565b602082019050919050565b5f6020820190508181035f8301526124d9816124a0565b9050919050565b7f4e487b71000000000000000000000000000000000000000000000000000000005f52601160045260245ffd5b5f61251782611b41565b915061252283611b41565b925082820190508082111561253a576125396124e0565b5b92915050565b7f4d696e74696e6720776f756c6420657863656564206d617820737570706c79005f82015250565b5f612574601f83611ed5565b915061257f82612540565b602082019050919050565b5f6020820190508181035f8301526125a181612568565b9050919050565b7f4e487b71000000000000000000000000000000000000000000000000000000005f52602260045260245ffd5b5f60028204905060018216806125ec57607f821691505b6020821081036125ff576125fe6125a8565b5b50919050565b61260e81611ba2565b82525050565b5f6040820190506126275f830185612605565b6126346020830184612605565b9392505050565b5f60408201905061264e5f830185611b4a565b61265b6020830184611b4a565b9392505050565b7f4e487b71000000000000000000000000000000000000000000000000000000005f52603260045260245ffd5b7f4d617820737570706c79206d7573742062652067726561746572207468616e205f8201527f7a65726f00000000000000000000000000000000000000000000000000000000602082015250565b5f6126e9602483611ed5565b91506126f48261268f565b604082019050919050565b5f6020820190508181035f830152612716816126dd565b9050919050565b7f496e697469616c20737570706c792063616e6e6f7420657863656564206d61785f8201527f20737570706c7900000000000000000000000000000000000000000000000000602082015250565b5f612777602783611ed5565b91506127828261271d565b604082019050919050565b5f6020820190508181035f8301526127a48161276b565b9050919050565b5f6127b582611b41565b91507fffffffffffffffffffffffffffffffffffffffffffffffffffffffffffffffff82036127e7576127e66124e0565b5b600182019050919050565b7f43616c6c657220646f6573206e6f74206f776e207468697320746f6b656e20495f8201527f4400000000000000000000000000000000000000000000000000000000000000602082015250565b5f61284c602183611ed5565b9150612857826127f2565b604082019050919050565b5f6020820190508181035f83015261287981612840565b9050919050565b7f56657374696e6720706572696f64206e6f742079657420636f6d706c657465645f82015250565b5f6128b4602083611ed5565b91506128bf82612880565b602082019050919050565b5f6020820190508181035f8301526128e1816128a8565b9050919050565b7f5769746864726177616c20696e74657276616c206e6f742079657420656c61705f8201527f7365640000000000000000000000000000000000000000000000000000000000602082015250565b5f612942602383611ed5565b915061294d826128e8565b604082019050919050565b5f6020820190508181035f83015261296f81612936565b9050919050565b5f6020820190506129895f830184612605565b92915050565b5f8151905061299d81611bdd565b92915050565b5f602082840312156129b8576129b7611b7b565b5b5f6129c58482850161298f565b91505092915050565b5f6129d882611b41565b91506129e383611b41565b92508282026129f181611b41565b91508282048414831517612a0857612a076124e0565b5b5092915050565b7f4e487b71000000000000000000000000000000000000000000000000000000005f52601260045260245ffd5b5f612a4682611b41565b9150612a5183611b41565b925082612a6157612a60612a0f565b5b828204905092915050565b7f4e6f20746f6b656e7320617661696c61626c6520666f722077697468647261775f8201527f616c000000000000000000000000000000000000000000000000000000000000602082015250565b5f612ac6602283611ed5565b9150612ad182612a6c565b604082019050919050565b5f6020820190508181035f830152612af381612aba565b9050919050565b5f604082019050612b0d5f830185612605565b612b1a6020830184611b4a565b9392505050565b5f81519050612b2f81612301565b92915050565b5f60208284031215612b4a57612b49611b7b565b5b5f612b5784828501612b21565b91505092915050565b7f496e73756666696369656e742062616c616e636520746f206275726e000000005f82015250565b5f612b94601c83611ed5565b9150612b9f82612b60565b602082019050919050565b5f6020820190508181035f830152612bc181612b88565b9050919050565b5f612bd282611b41565b9150612bdd83611b41565b9250828203905081811115612bf557612bf46124e0565b5b92915050565b5f608082019050612c0e5f830187612605565b612c1b6020830186611b4a565b612c286040830185611b4a565b612c356060830184611b4a565b95945050505050565b5f6040820190508181035f830152612c568185612285565b90508181036020830152612c6a8184612285565b90509392505050565b5f81519050919050565b5f82825260208201905092915050565b5f612c9782612c73565b612ca18185612c7d565b9350612cb1818560208601611ee5565b612cba81611d00565b840191505092915050565b5f60a082019050612cd85f830188612605565b612ce56020830187612605565b612cf26040830186611b4a565b612cff6060830185611b4a565b8181036080830152612d118184612c8d565b90509695505050505050565b5f81519050612d2b81611c70565b92915050565b5f60208284031215612d4657612d45611b7b565b5b5f612d5384828501612d1d565b91505092915050565b5f60a082019050612d6f5f830188612605565b612d7c6020830187612605565b8181036040830152612d8e8186612285565b90508181036060830152612da28185612285565b90508181036080830152612db68184612c8d565b9050969550505050505056fea2646970667358221220a91968058154b2752d74c1ee76c42f72a626fc5afdc1c2345c01bb8cd20c16e564736f6c634300081c0033697066733a2f2f6261666b726569667063366f6461336571667136706c626f727074716b6e35736665777837786b793434626c7a6969777a79346e75627837766665",
			"opcodes": "PUSH1 0x80 PUSH1 0x40 MSTORE CALLVALUE DUP1 ISZERO PUSH2 0xF JUMPI PUSH0 PUSH0 REVERT JUMPDEST POP PUSH1 0x40 MLOAD PUSH2 0x3347 CODESIZE SUB DUP1 PUSH2 0x3347 DUP4 CODECOPY DUP2 DUP2 ADD PUSH1 0x40 MSTORE DUP2 ADD SWAP1 PUSH2 0x31 SWAP2 SWAP1 PUSH2 0x1DA JUMP JUMPDEST PUSH1 0x40 MLOAD DUP1 PUSH1 0x80 ADD PUSH1 0x40 MSTORE DUP1 PUSH1 0x42 DUP2 MSTORE PUSH1 0x20 ADD PUSH2 0x3305 PUSH1 0x42 SWAP2 CODECOPY PUSH2 0x59 DUP2 PUSH2 0x60 PUSH1 0x20 SHL PUSH1 0x20 SHR JUMP JUMPDEST POP POP PUSH2 0x500 JUMP JUMPDEST DUP1 PUSH1 0x2 SWAP1 DUP2 PUSH2 0x6F SWAP2 SWAP1 PUSH2 0x431 JUMP JUMPDEST POP POP JUMP JUMPDEST PUSH0 PUSH1 0x40 MLOAD SWAP1 POP SWAP1 JUMP JUMPDEST PUSH0 PUSH0 REVERT JUMPDEST PUSH0 PUSH0 REVERT JUMPDEST PUSH0 PUSH0 REVERT JUMPDEST PUSH0 PUSH0 REVERT JUMPDEST PUSH0 PUSH1 0x1F NOT PUSH1 0x1F DUP4 ADD AND SWAP1 POP SWAP2 SWAP1 POP JUMP JUMPDEST PUSH32 0x4E487B7100000000000000000000000000000000000000000000000000000000 PUSH0 MSTORE PUSH1 0x41 PUSH1 0x4 MSTORE PUSH1 0x24 PUSH0 REVERT JUMPDEST PUSH2 0xD2 DUP3 PUSH2 0x8C JUMP JUMPDEST DUP2 ADD DUP2 DUP2 LT PUSH8 0xFFFFFFFFFFFFFFFF DUP3 GT OR ISZERO PUSH2 0xF1 JUMPI PUSH2 0xF0 PUSH2 0x9C JUMP JUMPDEST JUMPDEST DUP1 PUSH1 0x40 MSTORE POP POP POP JUMP JUMPDEST PUSH0 PUSH2 0x103 PUSH2 0x73 JUMP JUMPDEST SWAP1 POP PUSH2 0x10F DUP3 DUP3 PUSH2 0xC9 JUMP JUMPDEST SWAP2 SWAP1 POP JUMP JUMPDEST PUSH0 PUSH8 0xFFFFFFFFFFFFFFFF DUP3 GT ISZERO PUSH2 0x12E JUMPI PUSH2 0x12D PUSH2 0x9C JUMP JUMPDEST JUMPDEST PUSH2 0x137 DUP3 PUSH2 0x8C JUMP JUMPDEST SWAP1 POP PUSH1 0x20 DUP2 ADD SWAP1 POP SWAP2 SWAP1 POP JUMP JUMPDEST PUSH0 JUMPDEST DUP4 DUP2 LT ISZERO PUSH2 0x161 JUMPI DUP1 DUP3 ADD MLOAD DUP2 DUP5 ADD MSTORE PUSH1 0x20 DUP2 ADD SWAP1 POP PUSH2 0x146 JUMP JUMPDEST PUSH0 DUP5 DUP5 ADD MSTORE POP POP POP POP JUMP JUMPDEST PUSH0 PUSH2 0x17E PUSH2 0x179 DUP5 PUSH2 0x114 JUMP JUMPDEST PUSH2 0xFA JUMP JUMPDEST SWAP1 POP DUP3 DUP2 MSTORE PUSH1 0x20 DUP2 ADD DUP5 DUP5 DUP5 ADD GT ISZERO PUSH2 0x19A JUMPI PUSH2 0x199 PUSH2 0x88 JUMP JUMPDEST JUMPDEST PUSH2 0x1A5 DUP5 DUP3 DUP6 PUSH2 0x144 JUMP JUMPDEST POP SWAP4 SWAP3 POP POP POP JUMP JUMPDEST PUSH0 DUP3 PUSH1 0x1F DUP4 ADD SLT PUSH2 0x1C1 JUMPI PUSH2 0x1C0 PUSH2 0x84 JUMP JUMPDEST JUMPDEST DUP2 MLOAD PUSH2 0x1D1 DUP5 DUP3 PUSH1 0x20 DUP7 ADD PUSH2 0x16C JUMP JUMPDEST SWAP2 POP POP SWAP3 SWAP2 POP POP JUMP JUMPDEST PUSH0 PUSH1 0x20 DUP3 DUP5 SUB SLT ISZERO PUSH2 0x1EF JUMPI PUSH2 0x1EE PUSH2 0x7C JUMP JUMPDEST JUMPDEST PUSH0 DUP3 ADD MLOAD PUSH8 0xFFFFFFFFFFFFFFFF DUP2 GT ISZERO PUSH2 0x20C JUMPI PUSH2 0x20B PUSH2 0x80 JUMP JUMPDEST JUMPDEST PUSH2 0x218 DUP5 DUP3 DUP6 ADD PUSH2 0x1AD JUMP JUMPDEST SWAP2 POP POP SWAP3 SWAP2 POP POP JUMP JUMPDEST PUSH0 DUP2 MLOAD SWAP1 POP SWAP2 SWAP1 POP JUMP JUMPDEST PUSH32 0x4E487B7100000000000000000000000000000000000000000000000000000000 PUSH0 MSTORE PUSH1 0x22 PUSH1 0x4 MSTORE PUSH1 0x24 PUSH0 REVERT JUMPDEST PUSH0 PUSH1 0x2 DUP3 DIV SWAP1 POP PUSH1 0x1 DUP3 AND DUP1 PUSH2 0x26F JUMPI PUSH1 0x7F DUP3 AND SWAP2 POP JUMPDEST PUSH1 0x20 DUP3 LT DUP2 SUB PUSH2 0x282 JUMPI PUSH2 0x281 PUSH2 0x22B JUMP JUMPDEST JUMPDEST POP SWAP2 SWAP1 POP JUMP JUMPDEST PUSH0 DUP2 SWAP1 POP DUP2 PUSH0 MSTORE PUSH1 0x20 PUSH0 KECCAK256 SWAP1 POP SWAP2 SWAP1 POP JUMP JUMPDEST PUSH0 PUSH1 0x20 PUSH1 0x1F DUP4 ADD DIV SWAP1 POP SWAP2 SWAP1 POP JUMP JUMPDEST PUSH0 DUP3 DUP3 SHL SWAP1 POP SWAP3 SWAP2 POP POP JUMP JUMPDEST PUSH0 PUSH1 0x8 DUP4 MUL PUSH2 0x2E4 PUSH32 0xFFFFFFFFFFFFFFFFFFFFFFFFFFFFFFFFFFFFFFFFFFFFFFFFFFFFFFFFFFFFFFFF DUP3 PUSH2 0x2A9 JUMP JUMPDEST PUSH2 0x2EE DUP7 DUP4 PUSH2 0x2A9 JUMP JUMPDEST SWAP6 POP DUP1 NOT DUP5 AND SWAP4 POP DUP1 DUP7 AND DUP5 OR SWAP3 POP POP POP SWAP4 SWAP3 POP POP POP JUMP JUMPDEST PUSH0 DUP2 SWAP1 POP SWAP2 SWAP1 POP JUMP JUMPDEST PUSH0 DUP2 SWAP1 POP SWAP2 SWAP1 POP JUMP JUMPDEST PUSH0 PUSH2 0x332 PUSH2 0x32D PUSH2 0x328 DUP5 PUSH2 0x306 JUMP JUMPDEST PUSH2 0x30F JUMP JUMPDEST PUSH2 0x306 JUMP JUMPDEST SWAP1 POP SWAP2 SWAP1 POP JUMP JUMPDEST PUSH0 DUP2 SWAP1 POP SWAP2 SWAP1 POP JUMP JUMPDEST PUSH2 0x34B DUP4 PUSH2 0x318 JUMP JUMPDEST PUSH2 0x35F PUSH2 0x357 DUP3 PUSH2 0x339 JUMP JUMPDEST DUP5 DUP5 SLOAD PUSH2 0x2B5 JUMP JUMPDEST DUP3 SSTORE POP POP POP POP JUMP JUMPDEST PUSH0 PUSH0 SWAP1 POP SWAP1 JUMP JUMPDEST PUSH2 0x376 PUSH2 0x367 JUMP JUMPDEST PUSH2 0x381 DUP2 DUP5 DUP5 PUSH2 0x342 JUMP JUMPDEST POP POP POP JUMP JUMPDEST JUMPDEST DUP2 DUP2 LT ISZERO PUSH2 0x3A4 JUMPI PUSH2 0x399 PUSH0 DUP3 PUSH2 0x36E JUMP JUMPDEST PUSH1 0x1 DUP2 ADD SWAP1 POP PUSH2 0x387 JUMP JUMPDEST POP POP JUMP JUMPDEST PUSH1 0x1F DUP3 GT ISZERO PUSH2 0x3E9 JUMPI PUSH2 0x3BA DUP2 PUSH2 0x288 JUMP JUMPDEST PUSH2 0x3C3 DUP5 PUSH2 0x29A JUMP JUMPDEST DUP2 ADD PUSH1 0x20 DUP6 LT ISZERO PUSH2 0x3D2 JUMPI DUP2 SWAP1 POP JUMPDEST PUSH2 0x3E6 PUSH2 0x3DE DUP6 PUSH2 0x29A JUMP JUMPDEST DUP4 ADD DUP3 PUSH2 0x386 JUMP JUMPDEST POP POP JUMPDEST POP POP POP JUMP JUMPDEST PUSH0 DUP3 DUP3 SHR SWAP1 POP SWAP3 SWAP2 POP POP JUMP JUMPDEST PUSH0 PUSH2 0x409 PUSH0 NOT DUP5 PUSH1 0x8 MUL PUSH2 0x3EE JUMP JUMPDEST NOT DUP1 DUP4 AND SWAP2 POP POP SWAP3 SWAP2 POP POP JUMP JUMPDEST PUSH0 PUSH2 0x421 DUP4 DUP4 PUSH2 0x3FA JUMP JUMPDEST SWAP2 POP DUP3 PUSH1 0x2 MUL DUP3 OR SWAP1 POP SWAP3 SWAP2 POP POP JUMP JUMPDEST PUSH2 0x43A DUP3 PUSH2 0x221 JUMP JUMPDEST PUSH8 0xFFFFFFFFFFFFFFFF DUP2 GT ISZERO PUSH2 0x453 JUMPI PUSH2 0x452 PUSH2 0x9C JUMP JUMPDEST JUMPDEST PUSH2 0x45D DUP3 SLOAD PUSH2 0x258 JUMP JUMPDEST PUSH2 0x468 DUP3 DUP3 DUP6 PUSH2 0x3A8 JUMP JUMPDEST PUSH0 PUSH1 0x20 SWAP1 POP PUSH1 0x1F DUP4 GT PUSH1 0x1 DUP2 EQ PUSH2 0x499 JUMPI PUSH0 DUP5 ISZERO PUSH2 0x487 JUMPI DUP3 DUP8 ADD MLOAD SWAP1 POP JUMPDEST PUSH2 0x491 DUP6 DUP3 PUSH2 0x416 JUMP JUMPDEST DUP7 SSTORE POP PUSH2 0x4F8 JUMP JUMPDEST PUSH1 0x1F NOT DUP5 AND PUSH2 0x4A7 DUP7 PUSH2 0x288 JUMP JUMPDEST PUSH0 JUMPDEST DUP3 DUP2 LT ISZERO PUSH2 0x4CE JUMPI DUP5 DUP10 ADD MLOAD DUP3 SSTORE PUSH1 0x1 DUP3 ADD SWAP2 POP PUSH1 0x20 DUP6 ADD SWAP5 POP PUSH1 0x20 DUP2 ADD SWAP1 POP PUSH2 0x4A9 JUMP JUMPDEST DUP7 DUP4 LT ISZERO PUSH2 0x4EB JUMPI DUP5 DUP10 ADD MLOAD PUSH2 0x4E7 PUSH1 0x1F DUP10 AND DUP3 PUSH2 0x3FA JUMP JUMPDEST DUP4 SSTORE POP JUMPDEST PUSH1 0x1 PUSH1 0x2 DUP9 MUL ADD DUP9 SSTORE POP POP POP JUMPDEST POP POP POP POP POP POP JUMP JUMPDEST PUSH2 0x2DF8 DUP1 PUSH2 0x50D PUSH0 CODECOPY PUSH0 RETURN INVALID PUSH1 0x80 PUSH1 0x40 MSTORE CALLVALUE DUP1 ISZERO PUSH2 0xF JUMPI PUSH0 PUSH0 REVERT JUMPDEST POP PUSH1 0x4 CALLDATASIZE LT PUSH2 0x128 JUMPI PUSH0 CALLDATALOAD PUSH1 0xE0 SHR DUP1 PUSH4 0x5E05B02F GT PUSH2 0xAB JUMPI DUP1 PUSH4 0xA82F911F GT PUSH2 0x6F JUMPI DUP1 PUSH4 0xA82F911F EQ PUSH2 0x362 JUMPI DUP1 PUSH4 0xB390C0AB EQ PUSH2 0x392 JUMPI DUP1 PUSH4 0xDABAF424 EQ PUSH2 0x3AE JUMPI DUP1 PUSH4 0xE985E9C5 EQ PUSH2 0x3CC JUMPI DUP1 PUSH4 0xF242432A EQ PUSH2 0x3FC JUMPI PUSH2 0x128 JUMP JUMPDEST DUP1 PUSH4 0x5E05B02F EQ PUSH2 0x2AE JUMPI DUP1 PUSH4 0x869F7594 EQ PUSH2 0x2CA JUMPI DUP1 PUSH4 0x919956EF EQ PUSH2 0x2FA JUMPI DUP1 PUSH4 0xA1DB9782 EQ PUSH2 0x32A JUMPI DUP1 PUSH4 0xA22CB465 EQ PUSH2 0x346 JUMPI PUSH2 0x128 JUMP JUMPDEST DUP1 PUSH4 0xE89341C GT PUSH2 0xF2 JUMPI DUP1 PUSH4 0xE89341C EQ PUSH2 0x1E4 JUMPI DUP1 PUSH4 0x2EB2C2D6 EQ PUSH2 0x214 JUMPI DUP1 PUSH4 0x4C64C030 EQ PUSH2 0x230 JUMPI DUP1 PUSH4 0x4E1273F4 EQ PUSH2 0x24E JUMPI DUP1 PUSH4 0x54E00C43 EQ PUSH2 0x27E JUMPI PUSH2 0x128 JUMP JUMPDEST DUP1 PUSH3 0x9A9B7B EQ PUSH2 0x12C JUMPI DUP1 PUSH3 0xFDD58E EQ PUSH2 0x14A JUMPI DUP1 PUSH4 0x197D972 EQ PUSH2 0x17A JUMPI DUP1 PUSH4 0x1FFC9A7 EQ PUSH2 0x198 JUMPI DUP1 PUSH4 0x8DC9F42 EQ PUSH2 0x1C8 JUMPI JUMPDEST PUSH0 PUSH0 REVERT JUMPDEST PUSH2 0x134 PUSH2 0x418 JUMP JUMPDEST PUSH1 0x40 MLOAD PUSH2 0x141 SWAP2 SWAP1 PUSH2 0x1B59 JUMP JUMPDEST PUSH1 0x40 MLOAD DUP1 SWAP2 SUB SWAP1 RETURN JUMPDEST PUSH2 0x164 PUSH1 0x4 DUP1 CALLDATASIZE SUB DUP2 ADD SWAP1 PUSH2 0x15F SWAP2 SWAP1 PUSH2 0x1C07 JUMP JUMPDEST PUSH2 0x41E JUMP JUMPDEST PUSH1 0x40 MLOAD PUSH2 0x171 SWAP2 SWAP1 PUSH2 0x1B59 JUMP JUMPDEST PUSH1 0x40 MLOAD DUP1 SWAP2 SUB SWAP1 RETURN JUMPDEST PUSH2 0x182 PUSH2 0x473 JUMP JUMPDEST PUSH1 0x40 MLOAD PUSH2 0x18F SWAP2 SWAP1 PUSH2 0x1B59 JUMP JUMPDEST PUSH1 0x40 MLOAD DUP1 SWAP2 SUB SWAP1 RETURN JUMPDEST PUSH2 0x1B2 PUSH1 0x4 DUP1 CALLDATASIZE SUB DUP2 ADD SWAP1 PUSH2 0x1AD SWAP2 SWAP1 PUSH2 0x1C9A JUMP JUMPDEST PUSH2 0x47A JUMP JUMPDEST PUSH1 0x40 MLOAD PUSH2 0x1BF SWAP2 SWAP1 PUSH2 0x1CDF JUMP JUMPDEST PUSH1 0x40 MLOAD DUP1 SWAP2 SUB SWAP1 RETURN JUMPDEST PUSH2 0x1E2 PUSH1 0x4 DUP1 CALLDATASIZE SUB DUP2 ADD SWAP1 PUSH2 0x1DD SWAP2 SWAP1 PUSH2 0x1E34 JUMP JUMPDEST PUSH2 0x55B JUMP JUMPDEST STOP JUMPDEST PUSH2 0x1FE PUSH1 0x4 DUP1 CALLDATASIZE SUB DUP2 ADD SWAP1 PUSH2 0x1F9 SWAP2 SWAP1 PUSH2 0x1EA0 JUMP JUMPDEST PUSH2 0x656 JUMP JUMPDEST PUSH1 0x40 MLOAD PUSH2 0x20B SWAP2 SWAP1 PUSH2 0x1F45 JUMP JUMPDEST PUSH1 0x40 MLOAD DUP1 SWAP2 SUB SWAP1 RETURN JUMPDEST PUSH2 0x22E PUSH1 0x4 DUP1 CALLDATASIZE SUB DUP2 ADD SWAP1 PUSH2 0x229 SWAP2 SWAP1 PUSH2 0x2029 JUMP JUMPDEST PUSH2 0x6E8 JUMP JUMPDEST STOP JUMPDEST PUSH2 0x238 PUSH2 0x78F JUMP JUMPDEST PUSH1 0x40 MLOAD PUSH2 0x245 SWAP2 SWAP1 PUSH2 0x1B59 JUMP JUMPDEST PUSH1 0x40 MLOAD DUP1 SWAP2 SUB SWAP1 RETURN JUMPDEST PUSH2 0x268 PUSH1 0x4 DUP1 CALLDATASIZE SUB DUP2 ADD SWAP1 PUSH2 0x263 SWAP2 SWAP1 PUSH2 0x21B4 JUMP JUMPDEST PUSH2 0x796 JUMP JUMPDEST PUSH1 0x40 MLOAD PUSH2 0x275 SWAP2 SWAP1 PUSH2 0x22E1 JUMP JUMPDEST PUSH1 0x40 MLOAD DUP1 SWAP2 SUB SWAP1 RETURN JUMPDEST PUSH2 0x298 PUSH1 0x4 DUP1 CALLDATASIZE SUB DUP2 ADD SWAP1 PUSH2 0x293 SWAP2 SWAP1 PUSH2 0x1EA0 JUMP JUMPDEST PUSH2 0x8A0 JUMP JUMPDEST PUSH1 0x40 MLOAD PUSH2 0x2A5 SWAP2 SWAP1 PUSH2 0x1B59 JUMP JUMPDEST PUSH1 0x40 MLOAD DUP1 SWAP2 SUB SWAP1 RETURN JUMPDEST PUSH2 0x2C8 PUSH1 0x4 DUP1 CALLDATASIZE SUB DUP2 ADD SWAP1 PUSH2 0x2C3 SWAP2 SWAP1 PUSH2 0x1E34 JUMP JUMPDEST PUSH2 0x8B5 JUMP JUMPDEST STOP JUMPDEST PUSH2 0x2E4 PUSH1 0x4 DUP1 CALLDATASIZE SUB DUP2 ADD SWAP1 PUSH2 0x2DF SWAP2 SWAP1 PUSH2 0x1EA0 JUMP JUMPDEST PUSH2 0x9AE JUMP JUMPDEST PUSH1 0x40 MLOAD PUSH2 0x2F1 SWAP2 SWAP1 PUSH2 0x1B59 JUMP JUMPDEST PUSH1 0x40 MLOAD DUP1 SWAP2 SUB SWAP1 RETURN JUMPDEST PUSH2 0x314 PUSH1 0x4 DUP1 CALLDATASIZE SUB DUP2 ADD SWAP1 PUSH2 0x30F SWAP2 SWAP1 PUSH2 0x1EA0 JUMP JUMPDEST PUSH2 0x9C3 JUMP JUMPDEST PUSH1 0x40 MLOAD PUSH2 0x321 SWAP2 SWAP1 PUSH2 0x1B59 JUMP JUMPDEST PUSH1 0x40 MLOAD DUP1 SWAP2 SUB SWAP1 RETURN JUMPDEST PUSH2 0x344 PUSH1 0x4 DUP1 CALLDATASIZE SUB DUP2 ADD SWAP1 PUSH2 0x33F SWAP2 SWAP1 PUSH2 0x1C07 JUMP JUMPDEST PUSH2 0x9D8 JUMP JUMPDEST STOP JUMPDEST PUSH2 0x360 PUSH1 0x4 DUP1 CALLDATASIZE SUB DUP2 ADD SWAP1 PUSH2 0x35B SWAP2 SWAP1 PUSH2 0x232B JUMP JUMPDEST PUSH2 0xC5D JUMP JUMPDEST STOP JUMPDEST PUSH2 0x37C PUSH1 0x4 DUP1 CALLDATASIZE SUB DUP2 ADD SWAP1 PUSH2 0x377 SWAP2 SWAP1 PUSH2 0x1EA0 JUMP JUMPDEST PUSH2 0xC73 JUMP JUMPDEST PUSH1 0x40 MLOAD PUSH2 0x389 SWAP2 SWAP1 PUSH2 0x1B59 JUMP JUMPDEST PUSH1 0x40 MLOAD DUP1 SWAP2 SUB SWAP1 RETURN JUMPDEST PUSH2 0x3AC PUSH1 0x4 DUP1 CALLDATASIZE SUB DUP2 ADD SWAP1 PUSH2 0x3A7 SWAP2 SWAP1 PUSH2 0x2369 JUMP JUMPDEST PUSH2 0xC88 JUMP JUMPDEST STOP JUMPDEST PUSH2 0x3B6 PUSH2 0xD0A JUMP JUMPDEST PUSH1 0x40 MLOAD PUSH2 0x3C3 SWAP2 SWAP1 PUSH2 0x1B59 JUMP JUMPDEST PUSH1 0x40 MLOAD DUP1 SWAP2 SUB SWAP1 RETURN JUMPDEST PUSH2 0x3E6 PUSH1 0x4 DUP1 CALLDATASIZE SUB DUP2 ADD SWAP1 PUSH2 0x3E1 SWAP2 SWAP1 PUSH2 0x23A7 JUMP JUMPDEST PUSH2 0xD0F JUMP JUMPDEST PUSH1 0x40 MLOAD PUSH2 0x3F3 SWAP2 SWAP1 PUSH2 0x1CDF JUMP JUMPDEST PUSH1 0x40 MLOAD DUP1 SWAP2 SUB SWAP1 RETURN JUMPDEST PUSH2 0x416 PUSH1 0x4 DUP1 CALLDATASIZE SUB DUP2 ADD SWAP1 PUSH2 0x411 SWAP2 SWAP1 PUSH2 0x23E5 JUMP JUMPDEST PUSH2 0xD9D JUMP JUMPDEST STOP JUMPDEST PUSH1 0x3 SLOAD DUP2 JUMP JUMPDEST PUSH0 PUSH0 PUSH0 DUP4 DUP2 MSTORE PUSH1 0x20 ADD SWAP1 DUP2 MSTORE PUSH1 0x20 ADD PUSH0 KECCAK256 PUSH0 DUP5 PUSH20 0xFFFFFFFFFFFFFFFFFFFFFFFFFFFFFFFFFFFFFFFF AND PUSH20 0xFFFFFFFFFFFFFFFFFFFFFFFFFFFFFFFFFFFFFFFF AND DUP2 MSTORE PUSH1 0x20 ADD SWAP1 DUP2 MSTORE PUSH1 0x20 ADD PUSH0 KECCAK256 SLOAD SWAP1 POP SWAP3 SWAP2 POP POP JUMP JUMPDEST PUSH3 0x76A700 DUP2 JUMP JUMPDEST PUSH0 PUSH32 0xD9B67A2600000000000000000000000000000000000000000000000000000000 PUSH28 0xFFFFFFFFFFFFFFFFFFFFFFFFFFFFFFFFFFFFFFFFFFFFFFFFFFFFFFFF NOT AND DUP3 PUSH28 0xFFFFFFFFFFFFFFFFFFFFFFFFFFFFFFFFFFFFFFFFFFFFFFFFFFFFFFFF NOT AND EQ DUP1 PUSH2 0x544 JUMPI POP PUSH32 0xE89341C00000000000000000000000000000000000000000000000000000000 PUSH28 0xFFFFFFFFFFFFFFFFFFFFFFFFFFFFFFFFFFFFFFFFFFFFFFFFFFFFFFFF NOT AND DUP3 PUSH28 0xFFFFFFFFFFFFFFFFFFFFFFFFFFFFFFFFFFFFFFFFFFFFFFFFFFFFFFFF NOT AND EQ JUMPDEST DUP1 PUSH2 0x554 JUMPI POP PUSH2 0x553 DUP3 PUSH2 0xE44 JUMP JUMPDEST JUMPDEST SWAP1 POP SWAP2 SWAP1 POP JUMP JUMPDEST PUSH0 PUSH1 0x4 PUSH0 DUP6 DUP2 MSTORE PUSH1 0x20 ADD SWAP1 DUP2 MSTORE PUSH1 0x20 ADD PUSH0 KECCAK256 SLOAD GT PUSH2 0x5AE JUMPI PUSH1 0x40 MLOAD PUSH32 0x8C379A000000000000000000000000000000000000000000000000000000000 DUP2 MSTORE PUSH1 0x4 ADD PUSH2 0x5A5 SWAP1 PUSH2 0x24C2 JUMP JUMPDEST PUSH1 0x40 MLOAD DUP1 SWAP2 SUB SWAP1 REVERT JUMPDEST PUSH1 0x4 PUSH0 DUP5 DUP2 MSTORE PUSH1 0x20 ADD SWAP1 DUP2 MSTORE PUSH1 0x20 ADD PUSH0 KECCAK256 SLOAD DUP3 PUSH1 0x5 PUSH0 DUP7 DUP2 MSTORE PUSH1 0x20 ADD SWAP1 DUP2 MSTORE PUSH1 0x20 ADD PUSH0 KECCAK256 SLOAD PUSH2 0x5DD SWAP2 SWAP1 PUSH2 0x250D JUMP JUMPDEST GT ISZERO PUSH2 0x61E JUMPI PUSH1 0x40 MLOAD PUSH32 0x8C379A000000000000000000000000000000000000000000000000000000000 DUP2 MSTORE PUSH1 0x4 ADD PUSH2 0x615 SWAP1 PUSH2 0x258A JUMP JUMPDEST PUSH1 0x40 MLOAD DUP1 SWAP2 SUB SWAP1 REVERT JUMPDEST DUP2 PUSH1 0x5 PUSH0 DUP6 DUP2 MSTORE PUSH1 0x20 ADD SWAP1 DUP2 MSTORE PUSH1 0x20 ADD PUSH0 KECCAK256 PUSH0 DUP3 DUP3 SLOAD PUSH2 0x63E SWAP2 SWAP1 PUSH2 0x250D JUMP JUMPDEST SWAP3 POP POP DUP2 SWAP1 SSTORE POP PUSH2 0x651 CALLER DUP5 DUP5 DUP5 PUSH2 0xEAD JUMP JUMPDEST POP POP POP JUMP JUMPDEST PUSH1 0x60 PUSH1 0x2 DUP1 SLOAD PUSH2 0x665 SWAP1 PUSH2 0x25D5 JUMP JUMPDEST DUP1 PUSH1 0x1F ADD PUSH1 0x20 DUP1 SWAP2 DIV MUL PUSH1 0x20 ADD PUSH1 0x40 MLOAD SWAP1 DUP2 ADD PUSH1 0x40 MSTORE DUP1 SWAP3 SWAP2 SWAP1 DUP2 DUP2 MSTORE PUSH1 0x20 ADD DUP3 DUP1 SLOAD PUSH2 0x691 SWAP1 PUSH2 0x25D5 JUMP JUMPDEST DUP1 ISZERO PUSH2 0x6DC JUMPI DUP1 PUSH1 0x1F LT PUSH2 0x6B3 JUMPI PUSH2 0x100 DUP1 DUP4 SLOAD DIV MUL DUP4 MSTORE SWAP2 PUSH1 0x20 ADD SWAP2 PUSH2 0x6DC JUMP JUMPDEST DUP3 ADD SWAP2 SWAP1 PUSH0 MSTORE PUSH1 0x20 PUSH0 KECCAK256 SWAP1 JUMPDEST DUP2 SLOAD DUP2 MSTORE SWAP1 PUSH1 0x1 ADD SWAP1 PUSH1 0x20 ADD DUP1 DUP4 GT PUSH2 0x6BF JUMPI DUP3 SWAP1 SUB PUSH1 0x1F AND DUP3 ADD SWAP2 JUMPDEST POP POP POP POP POP SWAP1 POP SWAP2 SWAP1 POP JUMP JUMPDEST PUSH0 PUSH2 0x6F1 PUSH2 0xF42 JUMP JUMPDEST SWAP1 POP DUP1 PUSH20 0xFFFFFFFFFFFFFFFFFFFFFFFFFFFFFFFFFFFFFFFF AND DUP7 PUSH20 0xFFFFFFFFFFFFFFFFFFFFFFFFFFFFFFFFFFFFFFFF AND EQ ISZERO DUP1 ISZERO PUSH2 0x736 JUMPI POP PUSH2 0x734 DUP7 DUP3 PUSH2 0xD0F JUMP JUMPDEST ISZERO JUMPDEST ISZERO PUSH2 0x77A JUMPI DUP1 DUP7 PUSH1 0x40 MLOAD PUSH32 0xE237D92200000000000000000000000000000000000000000000000000000000 DUP2 MSTORE PUSH1 0x4 ADD PUSH2 0x771 SWAP3 SWAP2 SWAP1 PUSH2 0x2614 JUMP JUMPDEST PUSH1 0x40 MLOAD DUP1 SWAP2 SUB SWAP1 REVERT JUMPDEST PUSH2 0x787 DUP7 DUP7 DUP7 DUP7 DUP7 PUSH2 0xF49 JUMP JUMPDEST POP POP POP POP POP POP JUMP JUMPDEST PUSH3 0x278D00 DUP2 JUMP JUMPDEST PUSH1 0x60 DUP2 MLOAD DUP4 MLOAD EQ PUSH2 0x7E2 JUMPI DUP2 MLOAD DUP4 MLOAD PUSH1 0x40 MLOAD PUSH32 0x5B05999100000000000000000000000000000000000000000000000000000000 DUP2 MSTORE PUSH1 0x4 ADD PUSH2 0x7D9 SWAP3 SWAP2 SWAP1 PUSH2 0x263B JUMP JUMPDEST PUSH1 0x40 MLOAD DUP1 SWAP2 SUB SWAP1 REVERT JUMPDEST PUSH0 DUP4 MLOAD PUSH8 0xFFFFFFFFFFFFFFFF DUP2 GT ISZERO PUSH2 0x7FE JUMPI PUSH2 0x7FD PUSH2 0x1D10 JUMP JUMPDEST JUMPDEST PUSH1 0x40 MLOAD SWAP1 DUP1 DUP3 MSTORE DUP1 PUSH1 0x20 MUL PUSH1 0x20 ADD DUP3 ADD PUSH1 0x40 MSTORE DUP1 ISZERO PUSH2 0x82C JUMPI DUP2 PUSH1 0x20 ADD PUSH1 0x20 DUP3 MUL DUP1 CALLDATASIZE DUP4 CALLDATACOPY DUP1 DUP3 ADD SWAP2 POP POP SWAP1 POP JUMPDEST POP SWAP1 POP PUSH0 PUSH0 SWAP1 POP JUMPDEST DUP5 MLOAD DUP2 LT ISZERO PUSH2 0x895 JUMPI PUSH2 0x86B PUSH2 0x853 DUP3 DUP8 PUSH2 0x103D SWAP1 SWAP2 SWAP1 PUSH4 0xFFFFFFFF AND JUMP JUMPDEST PUSH2 0x866 DUP4 DUP8 PUSH2 0x1050 SWAP1 SWAP2 SWAP1 PUSH4 0xFFFFFFFF AND JUMP JUMPDEST PUSH2 0x41E JUMP JUMPDEST DUP3 DUP3 DUP2 MLOAD DUP2 LT PUSH2 0x87E JUMPI PUSH2 0x87D PUSH2 0x2662 JUMP JUMPDEST JUMPDEST PUSH1 0x20 MUL PUSH1 0x20 ADD ADD DUP2 DUP2 MSTORE POP POP DUP1 PUSH1 0x1 ADD SWAP1 POP PUSH2 0x834 JUMP JUMPDEST POP DUP1 SWAP2 POP POP SWAP3 SWAP2 POP POP JUMP JUMPDEST PUSH1 0x7 PUSH1 0x20 MSTORE DUP1 PUSH0 MSTORE PUSH1 0x40 PUSH0 KECCAK256 PUSH0 SWAP2 POP SWAP1 POP SLOAD DUP2 JUMP JUMPDEST PUSH0 DUP3 GT PUSH2 0x8F7 JUMPI PUSH1 0x40 MLOAD PUSH32 0x8C379A000000000000000000000000000000000000000000000000000000000 DUP2 MSTORE PUSH1 0x4 ADD PUSH2 0x8EE SWAP1 PUSH2 0x26FF JUMP JUMPDEST PUSH1 0x40 MLOAD DUP1 SWAP2 SUB SWAP1 REVERT JUMPDEST DUP2 DUP4 GT ISZERO PUSH2 0x93A JUMPI PUSH1 0x40 MLOAD PUSH32 0x8C379A000000000000000000000000000000000000000000000000000000000 DUP2 MSTORE PUSH1 0x4 ADD PUSH2 0x931 SWAP1 PUSH2 0x278D JUMP JUMPDEST PUSH1 0x40 MLOAD DUP1 SWAP2 SUB SWAP1 REVERT JUMPDEST PUSH0 PUSH1 0x3 PUSH0 DUP2 SLOAD PUSH2 0x949 SWAP1 PUSH2 0x27AB JUMP JUMPDEST SWAP2 SWAP1 POP DUP2 SWAP1 SSTORE SWAP1 POP DUP3 PUSH1 0x4 PUSH0 DUP4 DUP2 MSTORE PUSH1 0x20 ADD SWAP1 DUP2 MSTORE PUSH1 0x20 ADD PUSH0 KECCAK256 DUP2 SWAP1 SSTORE POP DUP4 PUSH1 0x5 PUSH0 DUP4 DUP2 MSTORE PUSH1 0x20 ADD SWAP1 DUP2 MSTORE PUSH1 0x20 ADD PUSH0 KECCAK256 DUP2 SWAP1 SSTORE POP TIMESTAMP PUSH1 0x6 PUSH0 DUP4 DUP2 MSTORE PUSH1 0x20 ADD SWAP1 DUP2 MSTORE PUSH1 0x20 ADD PUSH0 KECCAK256 DUP2 SWAP1 SSTORE POP PUSH0 DUP5 GT ISZERO PUSH2 0x9A8 JUMPI PUSH2 0x9A7 CALLER DUP3 DUP7 DUP6 PUSH2 0xEAD JUMP JUMPDEST JUMPDEST POP POP POP POP JUMP JUMPDEST PUSH1 0x4 PUSH1 0x20 MSTORE DUP1 PUSH0 MSTORE PUSH1 0x40 PUSH0 KECCAK256 PUSH0 SWAP2 POP SWAP1 POP SLOAD DUP2 JUMP JUMPDEST PUSH1 0x5 PUSH1 0x20 MSTORE DUP1 PUSH0 MSTORE PUSH1 0x40 PUSH0 KECCAK256 PUSH0 SWAP2 POP SWAP1 POP SLOAD DUP2 JUMP JUMPDEST PUSH0 PUSH2 0x9E3 CALLER DUP4 PUSH2 0x41E JUMP JUMPDEST GT PUSH2 0xA23 JUMPI PUSH1 0x40 MLOAD PUSH32 0x8C379A000000000000000000000000000000000000000000000000000000000 DUP2 MSTORE PUSH1 0x4 ADD PUSH2 0xA1A SWAP1 PUSH2 0x2862 JUMP JUMPDEST PUSH1 0x40 MLOAD DUP1 SWAP2 SUB SWAP1 REVERT JUMPDEST TIMESTAMP PUSH3 0x76A700 PUSH1 0x6 PUSH0 DUP5 DUP2 MSTORE PUSH1 0x20 ADD SWAP1 DUP2 MSTORE PUSH1 0x20 ADD PUSH0 KECCAK256 SLOAD PUSH2 0xA44 SWAP2 SWAP1 PUSH2 0x250D JUMP JUMPDEST GT ISZERO PUSH2 0xA85 JUMPI PUSH1 0x40 MLOAD PUSH32 0x8C379A000000000000000000000000000000000000000000000000000000000 DUP2 MSTORE PUSH1 0x4 ADD PUSH2 0xA7C SWAP1 PUSH2 0x28CA JUMP JUMPDEST PUSH1 0x40 MLOAD DUP1 SWAP2 SUB SWAP1 REVERT JUMPDEST TIMESTAMP PUSH3 0x278D00 PUSH1 0x7 PUSH0 DUP5 DUP2 MSTORE PUSH1 0x20 ADD SWAP1 DUP2 MSTORE PUSH1 0x20 ADD PUSH0 KECCAK256 SLOAD PUSH2 0xAA6 SWAP2 SWAP1 PUSH2 0x250D JUMP JUMPDEST GT ISZERO PUSH2 0xAE7 JUMPI PUSH1 0x40 MLOAD PUSH32 0x8C379A000000000000000000000000000000000000000000000000000000000 DUP2 MSTORE PUSH1 0x4 ADD PUSH2 0xADE SWAP1 PUSH2 0x2958 JUMP JUMPDEST PUSH1 0x40 MLOAD DUP1 SWAP2 SUB SWAP1 REVERT JUMPDEST PUSH0 DUP3 SWAP1 POP PUSH0 DUP2 PUSH20 0xFFFFFFFFFFFFFFFFFFFFFFFFFFFFFFFFFFFFFFFF AND PUSH4 0x70A08231 ADDRESS PUSH1 0x40 MLOAD DUP3 PUSH4 0xFFFFFFFF AND PUSH1 0xE0 SHL DUP2 MSTORE PUSH1 0x4 ADD PUSH2 0xB25 SWAP2 SWAP1 PUSH2 0x2976 JUMP JUMPDEST PUSH1 0x20 PUSH1 0x40 MLOAD DUP1 DUP4 SUB DUP2 DUP7 GAS STATICCALL ISZERO DUP1 ISZERO PUSH2 0xB40 JUMPI RETURNDATASIZE PUSH0 PUSH0 RETURNDATACOPY RETURNDATASIZE PUSH0 REVERT JUMPDEST POP POP POP POP PUSH1 0x40 MLOAD RETURNDATASIZE PUSH1 0x1F NOT PUSH1 0x1F DUP3 ADD AND DUP3 ADD DUP1 PUSH1 0x40 MSTORE POP DUP2 ADD SWAP1 PUSH2 0xB64 SWAP2 SWAP1 PUSH2 0x29A3 JUMP JUMPDEST SWAP1 POP PUSH0 PUSH1 0x64 PUSH1 0xA DUP4 PUSH2 0xB76 SWAP2 SWAP1 PUSH2 0x29CE JUMP JUMPDEST PUSH2 0xB80 SWAP2 SWAP1 PUSH2 0x2A3C JUMP JUMPDEST SWAP1 POP PUSH0 DUP2 GT PUSH2 0xBC4 JUMPI PUSH1 0x40 MLOAD PUSH32 0x8C379A000000000000000000000000000000000000000000000000000000000 DUP2 MSTORE PUSH1 0x4 ADD PUSH2 0xBBB SWAP1 PUSH2 0x2ADC JUMP JUMPDEST PUSH1 0x40 MLOAD DUP1 SWAP2 SUB SWAP1 REVERT JUMPDEST TIMESTAMP PUSH1 0x7 PUSH0 DUP7 DUP2 MSTORE PUSH1 0x20 ADD SWAP1 DUP2 MSTORE PUSH1 0x20 ADD PUSH0 KECCAK256 DUP2 SWAP1 SSTORE POP DUP3 PUSH20 0xFFFFFFFFFFFFFFFFFFFFFFFFFFFFFFFFFFFFFFFF AND PUSH4 0xA9059CBB CALLER DUP4 PUSH1 0x40 MLOAD DUP4 PUSH4 0xFFFFFFFF AND PUSH1 0xE0 SHL DUP2 MSTORE PUSH1 0x4 ADD PUSH2 0xC15 SWAP3 SWAP2 SWAP1 PUSH2 0x2AFA JUMP JUMPDEST PUSH1 0x20 PUSH1 0x40 MLOAD DUP1 DUP4 SUB DUP2 PUSH0 DUP8 GAS CALL ISZERO DUP1 ISZERO PUSH2 0xC31 JUMPI RETURNDATASIZE PUSH0 PUSH0 RETURNDATACOPY RETURNDATASIZE PUSH0 REVERT JUMPDEST POP POP POP POP PUSH1 0x40 MLOAD RETURNDATASIZE PUSH1 0x1F NOT PUSH1 0x1F DUP3 ADD AND DUP3 ADD DUP1 PUSH1 0x40 MSTORE POP DUP2 ADD SWAP1 PUSH2 0xC55 SWAP2 SWAP1 PUSH2 0x2B35 JUMP JUMPDEST POP POP POP POP POP POP JUMP JUMPDEST PUSH2 0xC6F PUSH2 0xC68 PUSH2 0xF42 JUMP JUMPDEST DUP4 DUP4 PUSH2 0x1063 JUMP JUMPDEST POP POP JUMP JUMPDEST PUSH1 0x6 PUSH1 0x20 MSTORE DUP1 PUSH0 MSTORE PUSH1 0x40 PUSH0 KECCAK256 PUSH0 SWAP2 POP SWAP1 POP SLOAD DUP2 JUMP JUMPDEST DUP1 PUSH2 0xC93 CALLER DUP5 PUSH2 0x41E JUMP JUMPDEST LT ISZERO PUSH2 0xCD4 JUMPI PUSH1 0x40 MLOAD PUSH32 0x8C379A000000000000000000000000000000000000000000000000000000000 DUP2 MSTORE PUSH1 0x4 ADD PUSH2 0xCCB SWAP1 PUSH2 0x2BAA JUMP JUMPDEST PUSH1 0x40 MLOAD DUP1 SWAP2 SUB SWAP1 REVERT JUMPDEST PUSH2 0xCDF CALLER DUP4 DUP4 PUSH2 0x11CC JUMP JUMPDEST DUP1 PUSH1 0x5 PUSH0 DUP5 DUP2 MSTORE PUSH1 0x20 ADD SWAP1 DUP2 MSTORE PUSH1 0x20 ADD PUSH0 KECCAK256 PUSH0 DUP3 DUP3 SLOAD PUSH2 0xCFF SWAP2 SWAP1 PUSH2 0x2BC8 JUMP JUMPDEST SWAP3 POP POP DUP2 SWAP1 SSTORE POP POP POP JUMP JUMPDEST PUSH1 0xA DUP2 JUMP JUMPDEST PUSH0 PUSH1 0x1 PUSH0 DUP5 PUSH20 0xFFFFFFFFFFFFFFFFFFFFFFFFFFFFFFFFFFFFFFFF AND PUSH20 0xFFFFFFFFFFFFFFFFFFFFFFFFFFFFFFFFFFFFFFFF AND DUP2 MSTORE PUSH1 0x20 ADD SWAP1 DUP2 MSTORE PUSH1 0x20 ADD PUSH0 KECCAK256 PUSH0 DUP4 PUSH20 0xFFFFFFFFFFFFFFFFFFFFFFFFFFFFFFFFFFFFFFFF AND PUSH20 0xFFFFFFFFFFFFFFFFFFFFFFFFFFFFFFFFFFFFFFFF AND DUP2 MSTORE PUSH1 0x20 ADD SWAP1 DUP2 MSTORE PUSH1 0x20 ADD PUSH0 KECCAK256 PUSH0 SWAP1 SLOAD SWAP1 PUSH2 0x100 EXP SWAP1 DIV PUSH1 0xFF AND SWAP1 POP SWAP3 SWAP2 POP POP JUMP JUMPDEST PUSH0 PUSH2 0xDA6 PUSH2 0xF42 JUMP JUMPDEST SWAP1 POP DUP1 PUSH20 0xFFFFFFFFFFFFFFFFFFFFFFFFFFFFFFFFFFFFFFFF AND DUP7 PUSH20 0xFFFFFFFFFFFFFFFFFFFFFFFFFFFFFFFFFFFFFFFF AND EQ ISZERO DUP1 ISZERO PUSH2 0xDEB JUMPI POP PUSH2 0xDE9 DUP7 DUP3 PUSH2 0xD0F JUMP JUMPDEST ISZERO JUMPDEST ISZERO PUSH2 0xE2F JUMPI DUP1 DUP7 PUSH1 0x40 MLOAD PUSH32 0xE237D92200000000000000000000000000000000000000000000000000000000 DUP2 MSTORE PUSH1 0x4 ADD PUSH2 0xE26 SWAP3 SWAP2 SWAP1 PUSH2 0x2614 JUMP JUMPDEST PUSH1 0x40 MLOAD DUP1 SWAP2 SUB SWAP1 REVERT JUMPDEST PUSH2 0xE3C DUP7 DUP7 DUP7 DUP7 DUP7 PUSH2 0x126E JUMP JUMPDEST POP POP POP POP POP POP JUMP JUMPDEST PUSH0 PUSH32 0x1FFC9A700000000000000000000000000000000000000000000000000000000 PUSH28 0xFFFFFFFFFFFFFFFFFFFFFFFFFFFFFFFFFFFFFFFFFFFFFFFFFFFFFFFF NOT AND DUP3 PUSH28 0xFFFFFFFFFFFFFFFFFFFFFFFFFFFFFFFFFFFFFFFFFFFFFFFFFFFFFFFF NOT AND EQ SWAP1 POP SWAP2 SWAP1 POP JUMP JUMPDEST PUSH0 PUSH20 0xFFFFFFFFFFFFFFFFFFFFFFFFFFFFFFFFFFFFFFFF AND DUP5 PUSH20 0xFFFFFFFFFFFFFFFFFFFFFFFFFFFFFFFFFFFFFFFF AND SUB PUSH2 0xF1D JUMPI PUSH0 PUSH1 0x40 MLOAD PUSH32 0x57F447CE00000000000000000000000000000000000000000000000000000000 DUP2 MSTORE PUSH1 0x4 ADD PUSH2 0xF14 SWAP2 SWAP1 PUSH2 0x2976 JUMP JUMPDEST PUSH1 0x40 MLOAD DUP1 SWAP2 SUB SWAP1 REVERT JUMPDEST PUSH0 PUSH0 PUSH2 0xF29 DUP6 DUP6 PUSH2 0x1374 JUMP JUMPDEST SWAP2 POP SWAP2 POP PUSH2 0xF3A PUSH0 DUP8 DUP5 DUP5 DUP8 PUSH2 0x13A4 JUMP JUMPDEST POP POP POP POP POP POP JUMP JUMPDEST PUSH0 CALLER SWAP1 POP SWAP1 JUMP JUMPDEST PUSH0 PUSH20 0xFFFFFFFFFFFFFFFFFFFFFFFFFFFFFFFFFFFFFFFF AND DUP5 PUSH20 0xFFFFFFFFFFFFFFFFFFFFFFFFFFFFFFFFFFFFFFFF AND SUB PUSH2 0xFB9 JUMPI PUSH0 PUSH1 0x40 MLOAD PUSH32 0x57F447CE00000000000000000000000000000000000000000000000000000000 DUP2 MSTORE PUSH1 0x4 ADD PUSH2 0xFB0 SWAP2 SWAP1 PUSH2 0x2976 JUMP JUMPDEST PUSH1 0x40 MLOAD DUP1 SWAP2 SUB SWAP1 REVERT JUMPDEST PUSH0 PUSH20 0xFFFFFFFFFFFFFFFFFFFFFFFFFFFFFFFFFFFFFFFF AND DUP6 PUSH20 0xFFFFFFFFFFFFFFFFFFFFFFFFFFFFFFFFFFFFFFFF AND SUB PUSH2 0x1029 JUMPI PUSH0 PUSH1 0x40 MLOAD PUSH32 0x1A8351400000000000000000000000000000000000000000000000000000000 DUP2 MSTORE PUSH1 0x4 ADD PUSH2 0x1020 SWAP2 SWAP1 PUSH2 0x2976 JUMP JUMPDEST PUSH1 0x40 MLOAD DUP1 SWAP2 SUB SWAP1 REVERT JUMPDEST PUSH2 0x1036 DUP6 DUP6 DUP6 DUP6 DUP6 PUSH2 0x13A4 JUMP JUMPDEST POP POP POP POP POP JUMP JUMPDEST PUSH0 PUSH1 0x20 DUP3 MUL PUSH1 0x20 DUP5 ADD ADD MLOAD SWAP1 POP SWAP3 SWAP2 POP POP JUMP JUMPDEST PUSH0 PUSH1 0x20 DUP3 MUL PUSH1 0x20 DUP5 ADD ADD MLOAD SWAP1 POP SWAP3 SWAP2 POP POP JUMP JUMPDEST PUSH0 PUSH20 0xFFFFFFFFFFFFFFFFFFFFFFFFFFFFFFFFFFFFFFFF AND DUP3 PUSH20 0xFFFFFFFFFFFFFFFFFFFFFFFFFFFFFFFFFFFFFFFF AND SUB PUSH2 0x10D3 JUMPI PUSH0 PUSH1 0x40 MLOAD PUSH32 0xCED3E10000000000000000000000000000000000000000000000000000000000 DUP2 MSTORE PUSH1 0x4 ADD PUSH2 0x10CA SWAP2 SWAP1 PUSH2 0x2976 JUMP JUMPDEST PUSH1 0x40 MLOAD DUP1 SWAP2 SUB SWAP1 REVERT JUMPDEST DUP1 PUSH1 0x1 PUSH0 DUP6 PUSH20 0xFFFFFFFFFFFFFFFFFFFFFFFFFFFFFFFFFFFFFFFF AND PUSH20 0xFFFFFFFFFFFFFFFFFFFFFFFFFFFFFFFFFFFFFFFF AND DUP2 MSTORE PUSH1 0x20 ADD SWAP1 DUP2 MSTORE PUSH1 0x20 ADD PUSH0 KECCAK256 PUSH0 DUP5 PUSH20 0xFFFFFFFFFFFFFFFFFFFFFFFFFFFFFFFFFFFFFFFF AND PUSH20 0xFFFFFFFFFFFFFFFFFFFFFFFFFFFFFFFFFFFFFFFF AND DUP2 MSTORE PUSH1 0x20 ADD SWAP1 DUP2 MSTORE PUSH1 0x20 ADD PUSH0 KECCAK256 PUSH0 PUSH2 0x100 EXP DUP2 SLOAD DUP2 PUSH1 0xFF MUL NOT AND SWAP1 DUP4 ISZERO ISZERO MUL OR SWAP1 SSTORE POP DUP2 PUSH20 0xFFFFFFFFFFFFFFFFFFFFFFFFFFFFFFFFFFFFFFFF AND DUP4 PUSH20 0xFFFFFFFFFFFFFFFFFFFFFFFFFFFFFFFFFFFFFFFF AND PUSH32 0x17307EAB39AB6107E8899845AD3D59BD9653F200F220920489CA2B5937696C31 DUP4 PUSH1 0x40 MLOAD PUSH2 0x11BF SWAP2 SWAP1 PUSH2 0x1CDF JUMP JUMPDEST PUSH1 0x40 MLOAD DUP1 SWAP2 SUB SWAP1 LOG3 POP POP POP JUMP JUMPDEST PUSH0 PUSH20 0xFFFFFFFFFFFFFFFFFFFFFFFFFFFFFFFFFFFFFFFF AND DUP4 PUSH20 0xFFFFFFFFFFFFFFFFFFFFFFFFFFFFFFFFFFFFFFFF AND SUB PUSH2 0x123C JUMPI PUSH0 PUSH1 0x40 MLOAD PUSH32 0x1A8351400000000000000000000000000000000000000000000000000000000 DUP2 MSTORE PUSH1 0x4 ADD PUSH2 0x1233 SWAP2 SWAP1 PUSH2 0x2976 JUMP JUMPDEST PUSH1 0x40 MLOAD DUP1 SWAP2 SUB SWAP1 REVERT JUMPDEST PUSH0 PUSH0 PUSH2 0x1248 DUP5 DUP5 PUSH2 0x1374 JUMP JUMPDEST SWAP2 POP SWAP2 POP PUSH2 0x1267 DUP6 PUSH0 DUP5 DUP5 PUSH1 0x40 MLOAD DUP1 PUSH1 0x20 ADD PUSH1 0x40 MSTORE DUP1 PUSH0 DUP2 MSTORE POP PUSH2 0x13A4 JUMP JUMPDEST POP POP POP POP POP JUMP JUMPDEST PUSH0 PUSH20 0xFFFFFFFFFFFFFFFFFFFFFFFFFFFFFFFFFFFFFFFF AND DUP5 PUSH20 0xFFFFFFFFFFFFFFFFFFFFFFFFFFFFFFFFFFFFFFFF AND SUB PUSH2 0x12DE JUMPI PUSH0 PUSH1 0x40 MLOAD PUSH32 0x57F447CE00000000000000000000000000000000000000000000000000000000 DUP2 MSTORE PUSH1 0x4 ADD PUSH2 0x12D5 SWAP2 SWAP1 PUSH2 0x2976 JUMP JUMPDEST PUSH1 0x40 MLOAD DUP1 SWAP2 SUB SWAP1 REVERT JUMPDEST PUSH0 PUSH20 0xFFFFFFFFFFFFFFFFFFFFFFFFFFFFFFFFFFFFFFFF AND DUP6 PUSH20 0xFFFFFFFFFFFFFFFFFFFFFFFFFFFFFFFFFFFFFFFF AND SUB PUSH2 0x134E JUMPI PUSH0 PUSH1 0x40 MLOAD PUSH32 0x1A8351400000000000000000000000000000000000000000000000000000000 DUP2 MSTORE PUSH1 0x4 ADD PUSH2 0x1345 SWAP2 SWAP1 PUSH2 0x2976 JUMP JUMPDEST PUSH1 0x40 MLOAD DUP1 SWAP2 SUB SWAP1 REVERT JUMPDEST PUSH0 PUSH0 PUSH2 0x135A DUP6 DUP6 PUSH2 0x1374 JUMP JUMPDEST SWAP2 POP SWAP2 POP PUSH2 0x136B DUP8 DUP8 DUP5 DUP5 DUP8 PUSH2 0x13A4 JUMP JUMPDEST POP POP POP POP POP POP POP JUMP JUMPDEST PUSH1 0x60 DUP1 PUSH1 0x40 MLOAD SWAP2 POP PUSH1 0x1 DUP3 MSTORE DUP4 PUSH1 0x20 DUP4 ADD MSTORE PUSH1 0x40 DUP3 ADD SWAP1 POP PUSH1 0x1 DUP2 MSTORE DUP3 PUSH1 0x20 DUP3 ADD MSTORE PUSH1 0x40 DUP2 ADD PUSH1 0x40 MSTORE SWAP3 POP SWAP3 SWAP1 POP JUMP JUMPDEST PUSH2 0x13B0 DUP6 DUP6 DUP6 DUP6 PUSH2 0x1450 JUMP JUMPDEST PUSH0 PUSH20 0xFFFFFFFFFFFFFFFFFFFFFFFFFFFFFFFFFFFFFFFF AND DUP5 PUSH20 0xFFFFFFFFFFFFFFFFFFFFFFFFFFFFFFFFFFFFFFFF AND EQ PUSH2 0x1449 JUMPI PUSH0 PUSH2 0x13EC PUSH2 0xF42 JUMP JUMPDEST SWAP1 POP PUSH1 0x1 DUP5 MLOAD SUB PUSH2 0x1438 JUMPI PUSH0 PUSH2 0x140B PUSH0 DUP7 PUSH2 0x1050 SWAP1 SWAP2 SWAP1 PUSH4 0xFFFFFFFF AND JUMP JUMPDEST SWAP1 POP PUSH0 PUSH2 0x1421 PUSH0 DUP7 PUSH2 0x1050 SWAP1 SWAP2 SWAP1 PUSH4 0xFFFFFFFF AND JUMP JUMPDEST SWAP1 POP PUSH2 0x1431 DUP4 DUP10 DUP10 DUP6 DUP6 DUP10 PUSH2 0x17E3 JUMP JUMPDEST POP POP PUSH2 0x1447 JUMP JUMPDEST PUSH2 0x1446 DUP2 DUP8 DUP8 DUP8 DUP8 DUP8 PUSH2 0x1992 JUMP JUMPDEST JUMPDEST POP JUMPDEST POP POP POP POP POP JUMP JUMPDEST DUP1 MLOAD DUP3 MLOAD EQ PUSH2 0x149A JUMPI DUP2 MLOAD DUP2 MLOAD PUSH1 0x40 MLOAD PUSH32 0x5B05999100000000000000000000000000000000000000000000000000000000 DUP2 MSTORE PUSH1 0x4 ADD PUSH2 0x1491 SWAP3 SWAP2 SWAP1 PUSH2 0x263B JUMP JUMPDEST PUSH1 0x40 MLOAD DUP1 SWAP2 SUB SWAP1 REVERT JUMPDEST PUSH0 PUSH2 0x14A3 PUSH2 0xF42 JUMP JUMPDEST SWAP1 POP PUSH0 PUSH0 SWAP1 POP JUMPDEST DUP4 MLOAD DUP2 LT ISZERO PUSH2 0x16A2 JUMPI PUSH0 PUSH2 0x14C7 DUP3 DUP7 PUSH2 0x1050 SWAP1 SWAP2 SWAP1 PUSH4 0xFFFFFFFF AND JUMP JUMPDEST SWAP1 POP PUSH0 PUSH2 0x14DD DUP4 DUP7 PUSH2 0x1050 SWAP1 SWAP2 SWAP1 PUSH4 0xFFFFFFFF AND JUMP JUMPDEST SWAP1 POP PUSH0 PUSH20 0xFFFFFFFFFFFFFFFFFFFFFFFFFFFFFFFFFFFFFFFF AND DUP9 PUSH20 0xFFFFFFFFFFFFFFFFFFFFFFFFFFFFFFFFFFFFFFFF AND EQ PUSH2 0x1600 JUMPI PUSH0 PUSH0 PUSH0 DUP5 DUP2 MSTORE PUSH1 0x20 ADD SWAP1 DUP2 MSTORE PUSH1 0x20 ADD PUSH0 KECCAK256 PUSH0 DUP11 PUSH20 0xFFFFFFFFFFFFFFFFFFFFFFFFFFFFFFFFFFFFFFFF AND PUSH20 0xFFFFFFFFFFFFFFFFFFFFFFFFFFFFFFFFFFFFFFFF AND DUP2 MSTORE PUSH1 0x20 ADD SWAP1 DUP2 MSTORE PUSH1 0x20 ADD PUSH0 KECCAK256 SLOAD SWAP1 POP DUP2 DUP2 LT ISZERO PUSH2 0x15AC JUMPI DUP9 DUP2 DUP4 DUP6 PUSH1 0x40 MLOAD PUSH32 0x3DEE4C500000000000000000000000000000000000000000000000000000000 DUP2 MSTORE PUSH1 0x4 ADD PUSH2 0x15A3 SWAP5 SWAP4 SWAP3 SWAP2 SWAP1 PUSH2 0x2BFB JUMP JUMPDEST PUSH1 0x40 MLOAD DUP1 SWAP2 SUB SWAP1 REVERT JUMPDEST DUP2 DUP2 SUB PUSH0 PUSH0 DUP6 DUP2 MSTORE PUSH1 0x20 ADD SWAP1 DUP2 MSTORE PUSH1 0x20 ADD PUSH0 KECCAK256 PUSH0 DUP12 PUSH20 0xFFFFFFFFFFFFFFFFFFFFFFFFFFFFFFFFFFFFFFFF AND PUSH20 0xFFFFFFFFFFFFFFFFFFFFFFFFFFFFFFFFFFFFFFFF AND DUP2 MSTORE PUSH1 0x20 ADD SWAP1 DUP2 MSTORE PUSH1 0x20 ADD PUSH0 KECCAK256 DUP2 SWAP1 SSTORE POP POP JUMPDEST PUSH0 PUSH20 0xFFFFFFFFFFFFFFFFFFFFFFFFFFFFFFFFFFFFFFFF AND DUP8 PUSH20 0xFFFFFFFFFFFFFFFFFFFFFFFFFFFFFFFFFFFFFFFF AND EQ PUSH2 0x1695 JUMPI DUP1 PUSH0 PUSH0 DUP5 DUP2 MSTORE PUSH1 0x20 ADD SWAP1 DUP2 MSTORE PUSH1 0x20 ADD PUSH0 KECCAK256 PUSH0 DUP10 PUSH20 0xFFFFFFFFFFFFFFFFFFFFFFFFFFFFFFFFFFFFFFFF AND PUSH20 0xFFFFFFFFFFFFFFFFFFFFFFFFFFFFFFFFFFFFFFFF AND DUP2 MSTORE PUSH1 0x20 ADD SWAP1 DUP2 MSTORE PUSH1 0x20 ADD PUSH0 KECCAK256 PUSH0 DUP3 DUP3 SLOAD PUSH2 0x168D SWAP2 SWAP1 PUSH2 0x250D JUMP JUMPDEST SWAP3 POP POP DUP2 SWAP1 SSTORE POP JUMPDEST POP POP DUP1 PUSH1 0x1 ADD SWAP1 POP PUSH2 0x14AA JUMP JUMPDEST POP PUSH1 0x1 DUP4 MLOAD SUB PUSH2 0x175D JUMPI PUSH0 PUSH2 0x16C0 PUSH0 DUP6 PUSH2 0x1050 SWAP1 SWAP2 SWAP1 PUSH4 0xFFFFFFFF AND JUMP JUMPDEST SWAP1 POP PUSH0 PUSH2 0x16D6 PUSH0 DUP6 PUSH2 0x1050 SWAP1 SWAP2 SWAP1 PUSH4 0xFFFFFFFF AND JUMP JUMPDEST SWAP1 POP DUP6 PUSH20 0xFFFFFFFFFFFFFFFFFFFFFFFFFFFFFFFFFFFFFFFF AND DUP8 PUSH20 0xFFFFFFFFFFFFFFFFFFFFFFFFFFFFFFFFFFFFFFFF AND DUP5 PUSH20 0xFFFFFFFFFFFFFFFFFFFFFFFFFFFFFFFFFFFFFFFF AND PUSH32 0xC3D58168C5AE7397731D063D5BBF3D657854427343F4C083240F7AACAA2D0F62 DUP6 DUP6 PUSH1 0x40 MLOAD PUSH2 0x174E SWAP3 SWAP2 SWAP1 PUSH2 0x263B JUMP JUMPDEST PUSH1 0x40 MLOAD DUP1 SWAP2 SUB SWAP1 LOG4 POP POP PUSH2 0x17DC JUMP JUMPDEST DUP4 PUSH20 0xFFFFFFFFFFFFFFFFFFFFFFFFFFFFFFFFFFFFFFFF AND DUP6 PUSH20 0xFFFFFFFFFFFFFFFFFFFFFFFFFFFFFFFFFFFFFFFF AND DUP3 PUSH20 0xFFFFFFFFFFFFFFFFFFFFFFFFFFFFFFFFFFFFFFFF AND PUSH32 0x4A39DC06D4C0DBC64B70AF90FD698A233A518AA5D07E595D983B8C0526C8F7FB DUP7 DUP7 PUSH1 0x40 MLOAD PUSH2 0x17D3 SWAP3 SWAP2 SWAP1 PUSH2 0x2C3E JUMP JUMPDEST PUSH1 0x40 MLOAD DUP1 SWAP2 SUB SWAP1 LOG4 JUMPDEST POP POP POP POP POP JUMP JUMPDEST PUSH0 DUP5 PUSH20 0xFFFFFFFFFFFFFFFFFFFFFFFFFFFFFFFFFFFFFFFF AND EXTCODESIZE GT ISZERO PUSH2 0x198A JUMPI DUP4 PUSH20 0xFFFFFFFFFFFFFFFFFFFFFFFFFFFFFFFFFFFFFFFF AND PUSH4 0xF23A6E61 DUP8 DUP8 DUP7 DUP7 DUP7 PUSH1 0x40 MLOAD DUP7 PUSH4 0xFFFFFFFF AND PUSH1 0xE0 SHL DUP2 MSTORE PUSH1 0x4 ADD PUSH2 0x1843 SWAP6 SWAP5 SWAP4 SWAP3 SWAP2 SWAP1 PUSH2 0x2CC5 JUMP JUMPDEST PUSH1 0x20 PUSH1 0x40 MLOAD DUP1 DUP4 SUB DUP2 PUSH0 DUP8 GAS CALL SWAP3 POP POP POP DUP1 ISZERO PUSH2 0x187E JUMPI POP PUSH1 0x40 MLOAD RETURNDATASIZE PUSH1 0x1F NOT PUSH1 0x1F DUP3 ADD AND DUP3 ADD DUP1 PUSH1 0x40 MSTORE POP DUP2 ADD SWAP1 PUSH2 0x187B SWAP2 SWAP1 PUSH2 0x2D31 JUMP JUMPDEST PUSH1 0x1 JUMPDEST PUSH2 0x18FF JUMPI RETURNDATASIZE DUP1 PUSH0 DUP2 EQ PUSH2 0x18AC JUMPI PUSH1 0x40 MLOAD SWAP2 POP PUSH1 0x1F NOT PUSH1 0x3F RETURNDATASIZE ADD AND DUP3 ADD PUSH1 0x40 MSTORE RETURNDATASIZE DUP3 MSTORE RETURNDATASIZE PUSH0 PUSH1 0x20 DUP5 ADD RETURNDATACOPY PUSH2 0x18B1 JUMP JUMPDEST PUSH1 0x60 SWAP2 POP JUMPDEST POP PUSH0 DUP2 MLOAD SUB PUSH2 0x18F7 JUMPI DUP5 PUSH1 0x40 MLOAD PUSH32 0x57F447CE00000000000000000000000000000000000000000000000000000000 DUP2 MSTORE PUSH1 0x4 ADD PUSH2 0x18EE SWAP2 SWAP1 PUSH2 0x2976 JUMP JUMPDEST PUSH1 0x40 MLOAD DUP1 SWAP2 SUB SWAP1 REVERT JUMPDEST DUP1 MLOAD DUP2 PUSH1 0x20 ADD REVERT JUMPDEST PUSH4 0xF23A6E61 PUSH1 0xE0 SHL PUSH28 0xFFFFFFFFFFFFFFFFFFFFFFFFFFFFFFFFFFFFFFFFFFFFFFFFFFFFFFFF NOT AND DUP2 PUSH28 0xFFFFFFFFFFFFFFFFFFFFFFFFFFFFFFFFFFFFFFFFFFFFFFFFFFFFFFFF NOT AND EQ PUSH2 0x1988 JUMPI DUP5 PUSH1 0x40 MLOAD PUSH32 0x57F447CE00000000000000000000000000000000000000000000000000000000 DUP2 MSTORE PUSH1 0x4 ADD PUSH2 0x197F SWAP2 SWAP1 PUSH2 0x2976 JUMP JUMPDEST PUSH1 0x40 MLOAD DUP1 SWAP2 SUB SWAP1 REVERT JUMPDEST POP JUMPDEST POP POP POP POP POP POP JUMP JUMPDEST PUSH0 DUP5 PUSH20 0xFFFFFFFFFFFFFFFFFFFFFFFFFFFFFFFFFFFFFFFF AND EXTCODESIZE GT ISZERO PUSH2 0x1B39 JUMPI DUP4 PUSH20 0xFFFFFFFFFFFFFFFFFFFFFFFFFFFFFFFFFFFFFFFF AND PUSH4 0xBC197C81 DUP8 DUP8 DUP7 DUP7 DUP7 PUSH1 0x40 MLOAD DUP7 PUSH4 0xFFFFFFFF AND PUSH1 0xE0 SHL DUP2 MSTORE PUSH1 0x4 ADD PUSH2 0x19F2 SWAP6 SWAP5 SWAP4 SWAP3 SWAP2 SWAP1 PUSH2 0x2D5C JUMP JUMPDEST PUSH1 0x20 PUSH1 0x40 MLOAD DUP1 DUP4 SUB DUP2 PUSH0 DUP8 GAS CALL SWAP3 POP POP POP DUP1 ISZERO PUSH2 0x1A2D JUMPI POP PUSH1 0x40 MLOAD RETURNDATASIZE PUSH1 0x1F NOT PUSH1 0x1F DUP3 ADD AND DUP3 ADD DUP1 PUSH1 0x40 MSTORE POP DUP2 ADD SWAP1 PUSH2 0x1A2A SWAP2 SWAP1 PUSH2 0x2D31 JUMP JUMPDEST PUSH1 0x1 JUMPDEST PUSH2 0x1AAE JUMPI RETURNDATASIZE DUP1 PUSH0 DUP2 EQ PUSH2 0x1A5B JUMPI PUSH1 0x40 MLOAD SWAP2 POP PUSH1 0x1F NOT PUSH1 0x3F RETURNDATASIZE ADD AND DUP3 ADD PUSH1 0x40 MSTORE RETURNDATASIZE DUP3 MSTORE RETURNDATASIZE PUSH0 PUSH1 0x20 DUP5 ADD RETURNDATACOPY PUSH2 0x1A60 JUMP JUMPDEST PUSH1 0x60 SWAP2 POP JUMPDEST POP PUSH0 DUP2 MLOAD SUB PUSH2 0x1AA6 JUMPI DUP5 PUSH1 0x40 MLOAD PUSH32 0x57F447CE00000000000000000000000000000000000000000000000000000000 DUP2 MSTORE PUSH1 0x4 ADD PUSH2 0x1A9D SWAP2 SWAP1 PUSH2 0x2976 JUMP JUMPDEST PUSH1 0x40 MLOAD DUP1 SWAP2 SUB SWAP1 REVERT JUMPDEST DUP1 MLOAD DUP2 PUSH1 0x20 ADD REVERT JUMPDEST PUSH4 0xBC197C81 PUSH1 0xE0 SHL PUSH28 0xFFFFFFFFFFFFFFFFFFFFFFFFFFFFFFFFFFFFFFFFFFFFFFFFFFFFFFFF NOT AND DUP2 PUSH28 0xFFFFFFFFFFFFFFFFFFFFFFFFFFFFFFFFFFFFFFFFFFFFFFFFFFFFFFFF NOT AND EQ PUSH2 0x1B37 JUMPI DUP5 PUSH1 0x40 MLOAD PUSH32 0x57F447CE00000000000000000000000000000000000000000000000000000000 DUP2 MSTORE PUSH1 0x4 ADD PUSH2 0x1B2E SWAP2 SWAP1 PUSH2 0x2976 JUMP JUMPDEST PUSH1 0x40 MLOAD DUP1 SWAP2 SUB SWAP1 REVERT JUMPDEST POP JUMPDEST POP POP POP POP POP POP JUMP JUMPDEST PUSH0 DUP2 SWAP1 POP SWAP2 SWAP1 POP JUMP JUMPDEST PUSH2 0x1B53 DUP2 PUSH2 0x1B41 JUMP JUMPDEST DUP3 MSTORE POP POP JUMP JUMPDEST PUSH0 PUSH1 0x20 DUP3 ADD SWAP1 POP PUSH2 0x1B6C PUSH0 DUP4 ADD DUP5 PUSH2 0x1B4A JUMP JUMPDEST SWAP3 SWAP2 POP POP JUMP JUMPDEST PUSH0 PUSH1 0x40 MLOAD SWAP1 POP SWAP1 JUMP JUMPDEST PUSH0 PUSH0 REVERT JUMPDEST PUSH0 PUSH0 REVERT JUMPDEST PUSH0 PUSH20 0xFFFFFFFFFFFFFFFFFFFFFFFFFFFFFFFFFFFFFFFF DUP3 AND SWAP1 POP SWAP2 SWAP1 POP JUMP JUMPDEST PUSH0 PUSH2 0x1BAC DUP3 PUSH2 0x1B83 JUMP JUMPDEST SWAP1 POP SWAP2 SWAP1 POP JUMP JUMPDEST PUSH2 0x1BBC DUP2 PUSH2 0x1BA2 JUMP JUMPDEST DUP2 EQ PUSH2 0x1BC6 JUMPI PUSH0 PUSH0 REVERT JUMPDEST POP JUMP JUMPDEST PUSH0 DUP2 CALLDATALOAD SWAP1 POP PUSH2 0x1BD7 DUP2 PUSH2 0x1BB3 JUMP JUMPDEST SWAP3 SWAP2 POP POP JUMP JUMPDEST PUSH2 0x1BE6 DUP2 PUSH2 0x1B41 JUMP JUMPDEST DUP2 EQ PUSH2 0x1BF0 JUMPI PUSH0 PUSH0 REVERT JUMPDEST POP JUMP JUMPDEST PUSH0 DUP2 CALLDATALOAD SWAP1 POP PUSH2 0x1C01 DUP2 PUSH2 0x1BDD JUMP JUMPDEST SWAP3 SWAP2 POP POP JUMP JUMPDEST PUSH0 PUSH0 PUSH1 0x40 DUP4 DUP6 SUB SLT ISZERO PUSH2 0x1C1D JUMPI PUSH2 0x1C1C PUSH2 0x1B7B JUMP JUMPDEST JUMPDEST PUSH0 PUSH2 0x1C2A DUP6 DUP3 DUP7 ADD PUSH2 0x1BC9 JUMP JUMPDEST SWAP3 POP POP PUSH1 0x20 PUSH2 0x1C3B DUP6 DUP3 DUP7 ADD PUSH2 0x1BF3 JUMP JUMPDEST SWAP2 POP POP SWAP3 POP SWAP3 SWAP1 POP JUMP JUMPDEST PUSH0 PUSH32 0xFFFFFFFF00000000000000000000000000000000000000000000000000000000 DUP3 AND SWAP1 POP SWAP2 SWAP1 POP JUMP JUMPDEST PUSH2 0x1C79 DUP2 PUSH2 0x1C45 JUMP JUMPDEST DUP2 EQ PUSH2 0x1C83 JUMPI PUSH0 PUSH0 REVERT JUMPDEST POP JUMP JUMPDEST PUSH0 DUP2 CALLDATALOAD SWAP1 POP PUSH2 0x1C94 DUP2 PUSH2 0x1C70 JUMP JUMPDEST SWAP3 SWAP2 POP POP JUMP JUMPDEST PUSH0 PUSH1 0x20 DUP3 DUP5 SUB SLT ISZERO PUSH2 0x1CAF JUMPI PUSH2 0x1CAE PUSH2 0x1B7B JUMP JUMPDEST JUMPDEST PUSH0 PUSH2 0x1CBC DUP5 DUP3 DUP6 ADD PUSH2 0x1C86 JUMP JUMPDEST SWAP2 POP POP SWAP3 SWAP2 POP POP JUMP JUMPDEST PUSH0 DUP2 ISZERO ISZERO SWAP1 POP SWAP2 SWAP1 POP JUMP JUMPDEST PUSH2 0x1CD9 DUP2 PUSH2 0x1CC5 JUMP JUMPDEST DUP3 MSTORE POP POP JUMP JUMPDEST PUSH0 PUSH1 0x20 DUP3 ADD SWAP1 POP PUSH2 0x1CF2 PUSH0 DUP4 ADD DUP5 PUSH2 0x1CD0 JUMP JUMPDEST SWAP3 SWAP2 POP POP JUMP JUMPDEST PUSH0 PUSH0 REVERT JUMPDEST PUSH0 PUSH0 REVERT JUMPDEST PUSH0 PUSH1 0x1F NOT PUSH1 0x1F DUP4 ADD AND SWAP1 POP SWAP2 SWAP1 POP JUMP JUMPDEST PUSH32 0x4E487B7100000000000000000000000000000000000000000000000000000000 PUSH0 MSTORE PUSH1 0x41 PUSH1 0x4 MSTORE PUSH1 0x24 PUSH0 REVERT JUMPDEST PUSH2 0x1D46 DUP3 PUSH2 0x1D00 JUMP JUMPDEST DUP2 ADD DUP2 DUP2 LT PUSH8 0xFFFFFFFFFFFFFFFF DUP3 GT OR ISZERO PUSH2 0x1D65 JUMPI PUSH2 0x1D64 PUSH2 0x1D10 JUMP JUMPDEST JUMPDEST DUP1 PUSH1 0x40 MSTORE POP POP POP JUMP JUMPDEST PUSH0 PUSH2 0x1D77 PUSH2 0x1B72 JUMP JUMPDEST SWAP1 POP PUSH2 0x1D83 DUP3 DUP3 PUSH2 0x1D3D JUMP JUMPDEST SWAP2 SWAP1 POP JUMP JUMPDEST PUSH0 PUSH8 0xFFFFFFFFFFFFFFFF DUP3 GT ISZERO PUSH2 0x1DA2 JUMPI PUSH2 0x1DA1 PUSH2 0x1D10 JUMP JUMPDEST JUMPDEST PUSH2 0x1DAB DUP3 PUSH2 0x1D00 JUMP JUMPDEST SWAP1 POP PUSH1 0x20 DUP2 ADD SWAP1 POP SWAP2 SWAP1 POP JUMP JUMPDEST DUP3 DUP2 DUP4 CALLDATACOPY PUSH0 DUP4 DUP4 ADD MSTORE POP POP POP JUMP JUMPDEST PUSH0 PUSH2 0x1DD8 PUSH2 0x1DD3 DUP5 PUSH2 0x1D88 JUMP JUMPDEST PUSH2 0x1D6E JUMP JUMPDEST SWAP1 POP DUP3 DUP2 MSTORE PUSH1 0x20 DUP2 ADD DUP5 DUP5 DUP5 ADD GT ISZERO PUSH2 0x1DF4 JUMPI PUSH2 0x1DF3 PUSH2 0x1CFC JUMP JUMPDEST JUMPDEST PUSH2 0x1DFF DUP5 DUP3 DUP6 PUSH2 0x1DB8 JUMP JUMPDEST POP SWAP4 SWAP3 POP POP POP JUMP JUMPDEST PUSH0 DUP3 PUSH1 0x1F DUP4 ADD SLT PUSH2 0x1E1B JUMPI PUSH2 0x1E1A PUSH2 0x1CF8 JUMP JUMPDEST JUMPDEST DUP2 CALLDATALOAD PUSH2 0x1E2B DUP5 DUP3 PUSH1 0x20 DUP7 ADD PUSH2 0x1DC6 JUMP JUMPDEST SWAP2 POP POP SWAP3 SWAP2 POP POP JUMP JUMPDEST PUSH0 PUSH0 PUSH0 PUSH1 0x60 DUP5 DUP7 SUB SLT ISZERO PUSH2 0x1E4B JUMPI PUSH2 0x1E4A PUSH2 0x1B7B JUMP JUMPDEST JUMPDEST PUSH0 PUSH2 0x1E58 DUP7 DUP3 DUP8 ADD PUSH2 0x1BF3 JUMP JUMPDEST SWAP4 POP POP PUSH1 0x20 PUSH2 0x1E69 DUP7 DUP3 DUP8 ADD PUSH2 0x1BF3 JUMP JUMPDEST SWAP3 POP POP PUSH1 0x40 DUP5 ADD CALLDATALOAD PUSH8 0xFFFFFFFFFFFFFFFF DUP2 GT ISZERO PUSH2 0x1E8A JUMPI PUSH2 0x1E89 PUSH2 0x1B7F JUMP JUMPDEST JUMPDEST PUSH2 0x1E96 DUP7 DUP3 DUP8 ADD PUSH2 0x1E07 JUMP JUMPDEST SWAP2 POP POP SWAP3 POP SWAP3 POP SWAP3 JUMP JUMPDEST PUSH0 PUSH1 0x20 DUP3 DUP5 SUB SLT ISZERO PUSH2 0x1EB5 JUMPI PUSH2 0x1EB4 PUSH2 0x1B7B JUMP JUMPDEST JUMPDEST PUSH0 PUSH2 0x1EC2 DUP5 DUP3 DUP6 ADD PUSH2 0x1BF3 JUMP JUMPDEST SWAP2 POP POP SWAP3 SWAP2 POP POP JUMP JUMPDEST PUSH0 DUP2 MLOAD SWAP1 POP SWAP2 SWAP1 POP JUMP JUMPDEST PUSH0 DUP3 DUP3 MSTORE PUSH1 0x20 DUP3 ADD SWAP1 POP SWAP3 SWAP2 POP POP JUMP JUMPDEST PUSH0 JUMPDEST DUP4 DUP2 LT ISZERO PUSH2 0x1F02 JUMPI DUP1 DUP3 ADD MLOAD DUP2 DUP5 ADD MSTORE PUSH1 0x20 DUP2 ADD SWAP1 POP PUSH2 0x1EE7 JUMP JUMPDEST PUSH0 DUP5 DUP5 ADD MSTORE POP POP POP POP JUMP JUMPDEST PUSH0 PUSH2 0x1F17 DUP3 PUSH2 0x1ECB JUMP JUMPDEST PUSH2 0x1F21 DUP2 DUP6 PUSH2 0x1ED5 JUMP JUMPDEST SWAP4 POP PUSH2 0x1F31 DUP2 DUP6 PUSH1 0x20 DUP7 ADD PUSH2 0x1EE5 JUMP JUMPDEST PUSH2 0x1F3A DUP2 PUSH2 0x1D00 JUMP JUMPDEST DUP5 ADD SWAP2 POP POP SWAP3 SWAP2 POP POP JUMP JUMPDEST PUSH0 PUSH1 0x20 DUP3 ADD SWAP1 POP DUP2 DUP2 SUB PUSH0 DUP4 ADD MSTORE PUSH2 0x1F5D DUP2 DUP5 PUSH2 0x1F0D JUMP JUMPDEST SWAP1 POP SWAP3 SWAP2 POP POP JUMP JUMPDEST PUSH0 PUSH8 0xFFFFFFFFFFFFFFFF DUP3 GT ISZERO PUSH2 0x1F7F JUMPI PUSH2 0x1F7E PUSH2 0x1D10 JUMP JUMPDEST JUMPDEST PUSH1 0x20 DUP3 MUL SWAP1 POP PUSH1 0x20 DUP2 ADD SWAP1 POP SWAP2 SWAP1 POP JUMP JUMPDEST PUSH0 PUSH0 REVERT JUMPDEST PUSH0 PUSH2 0x1FA6 PUSH2 0x1FA1 DUP5 PUSH2 0x1F65 JUMP JUMPDEST PUSH2 0x1D6E JUMP JUMPDEST SWAP1 POP DUP1 DUP4 DUP3 MSTORE PUSH1 0x20 DUP3 ADD SWAP1 POP PUSH1 0x20 DUP5 MUL DUP4 ADD DUP6 DUP2 GT ISZERO PUSH2 0x1FC9 JUMPI PUSH2 0x1FC8 PUSH2 0x1F90 JUMP JUMPDEST JUMPDEST DUP4 JUMPDEST DUP2 DUP2 LT ISZERO PUSH2 0x1FF2 JUMPI DUP1 PUSH2 0x1FDE DUP9 DUP3 PUSH2 0x1BF3 JUMP JUMPDEST DUP5 MSTORE PUSH1 0x20 DUP5 ADD SWAP4 POP POP PUSH1 0x20 DUP2 ADD SWAP1 POP PUSH2 0x1FCB JUMP JUMPDEST POP POP POP SWAP4 SWAP3 POP POP POP JUMP JUMPDEST PUSH0 DUP3 PUSH1 0x1F DUP4 ADD SLT PUSH2 0x2010 JUMPI PUSH2 0x200F PUSH2 0x1CF8 JUMP JUMPDEST JUMPDEST DUP2 CALLDATALOAD PUSH2 0x2020 DUP5 DUP3 PUSH1 0x20 DUP7 ADD PUSH2 0x1F94 JUMP JUMPDEST SWAP2 POP POP SWAP3 SWAP2 POP POP JUMP JUMPDEST PUSH0 PUSH0 PUSH0 PUSH0 PUSH0 PUSH1 0xA0 DUP7 DUP9 SUB SLT ISZERO PUSH2 0x2042 JUMPI PUSH2 0x2041 PUSH2 0x1B7B JUMP JUMPDEST JUMPDEST PUSH0 PUSH2 0x204F DUP9 DUP3 DUP10 ADD PUSH2 0x1BC9 JUMP JUMPDEST SWAP6 POP POP PUSH1 0x20 PUSH2 0x2060 DUP9 DUP3 DUP10 ADD PUSH2 0x1BC9 JUMP JUMPDEST SWAP5 POP POP PUSH1 0x40 DUP7 ADD CALLDATALOAD PUSH8 0xFFFFFFFFFFFFFFFF DUP2 GT ISZERO PUSH2 0x2081 JUMPI PUSH2 0x2080 PUSH2 0x1B7F JUMP JUMPDEST JUMPDEST PUSH2 0x208D DUP9 DUP3 DUP10 ADD PUSH2 0x1FFC JUMP JUMPDEST SWAP4 POP POP PUSH1 0x60 DUP7 ADD CALLDATALOAD PUSH8 0xFFFFFFFFFFFFFFFF DUP2 GT ISZERO PUSH2 0x20AE JUMPI PUSH2 0x20AD PUSH2 0x1B7F JUMP JUMPDEST JUMPDEST PUSH2 0x20BA DUP9 DUP3 DUP10 ADD PUSH2 0x1FFC JUMP JUMPDEST SWAP3 POP POP PUSH1 0x80 DUP7 ADD CALLDATALOAD PUSH8 0xFFFFFFFFFFFFFFFF DUP2 GT ISZERO PUSH2 0x20DB JUMPI PUSH2 0x20DA PUSH2 0x1B7F JUMP JUMPDEST JUMPDEST PUSH2 0x20E7 DUP9 DUP3 DUP10 ADD PUSH2 0x1E07 JUMP JUMPDEST SWAP2 POP POP SWAP3 SWAP6 POP SWAP3 SWAP6 SWAP1 SWAP4 POP JUMP JUMPDEST PUSH0 PUSH8 0xFFFFFFFFFFFFFFFF DUP3 GT ISZERO PUSH2 0x210E JUMPI PUSH2 0x210D PUSH2 0x1D10 JUMP JUMPDEST JUMPDEST PUSH1 0x20 DUP3 MUL SWAP1 POP PUSH1 0x20 DUP2 ADD SWAP1 POP SWAP2 SWAP1 POP JUMP JUMPDEST PUSH0 PUSH2 0x2131 PUSH2 0x212C DUP5 PUSH2 0x20F4 JUMP JUMPDEST PUSH2 0x1D6E JUMP JUMPDEST SWAP1 POP DUP1 DUP4 DUP3 MSTORE PUSH1 0x20 DUP3 ADD SWAP1 POP PUSH1 0x20 DUP5 MUL DUP4 ADD DUP6 DUP2 GT ISZERO PUSH2 0x2154 JUMPI PUSH2 0x2153 PUSH2 0x1F90 JUMP JUMPDEST JUMPDEST DUP4 JUMPDEST DUP2 DUP2 LT ISZERO PUSH2 0x217D JUMPI DUP1 PUSH2 0x2169 DUP9 DUP3 PUSH2 0x1BC9 JUMP JUMPDEST DUP5 MSTORE PUSH1 0x20 DUP5 ADD SWAP4 POP POP PUSH1 0x20 DUP2 ADD SWAP1 POP PUSH2 0x2156 JUMP JUMPDEST POP POP POP SWAP4 SWAP3 POP POP POP JUMP JUMPDEST PUSH0 DUP3 PUSH1 0x1F DUP4 ADD SLT PUSH2 0x219B JUMPI PUSH2 0x219A PUSH2 0x1CF8 JUMP JUMPDEST JUMPDEST DUP2 CALLDATALOAD PUSH2 0x21AB DUP5 DUP3 PUSH1 0x20 DUP7 ADD PUSH2 0x211F JUMP JUMPDEST SWAP2 POP POP SWAP3 SWAP2 POP POP JUMP JUMPDEST PUSH0 PUSH0 PUSH1 0x40 DUP4 DUP6 SUB SLT ISZERO PUSH2 0x21CA JUMPI PUSH2 0x21C9 PUSH2 0x1B7B JUMP JUMPDEST JUMPDEST PUSH0 DUP4 ADD CALLDATALOAD PUSH8 0xFFFFFFFFFFFFFFFF DUP2 GT ISZERO PUSH2 0x21E7 JUMPI PUSH2 0x21E6 PUSH2 0x1B7F JUMP JUMPDEST JUMPDEST PUSH2 0x21F3 DUP6 DUP3 DUP7 ADD PUSH2 0x2187 JUMP JUMPDEST SWAP3 POP POP PUSH1 0x20 DUP4 ADD CALLDATALOAD PUSH8 0xFFFFFFFFFFFFFFFF DUP2 GT ISZERO PUSH2 0x2214 JUMPI PUSH2 0x2213 PUSH2 0x1B7F JUMP JUMPDEST JUMPDEST PUSH2 0x2220 DUP6 DUP3 DUP7 ADD PUSH2 0x1FFC JUMP JUMPDEST SWAP2 POP POP SWAP3 POP SWAP3 SWAP1 POP JUMP JUMPDEST PUSH0 DUP2 MLOAD SWAP1 POP SWAP2 SWAP1 POP JUMP JUMPDEST PUSH0 DUP3 DUP3 MSTORE PUSH1 0x20 DUP3 ADD SWAP1 POP SWAP3 SWAP2 POP POP JUMP JUMPDEST PUSH0 DUP2 SWAP1 POP PUSH1 0x20 DUP3 ADD SWAP1 POP SWAP2 SWAP1 POP JUMP JUMPDEST PUSH2 0x225C DUP2 PUSH2 0x1B41 JUMP JUMPDEST DUP3 MSTORE POP POP JUMP JUMPDEST PUSH0 PUSH2 0x226D DUP4 DUP4 PUSH2 0x2253 JUMP JUMPDEST PUSH1 0x20 DUP4 ADD SWAP1 POP SWAP3 SWAP2 POP POP JUMP JUMPDEST PUSH0 PUSH1 0x20 DUP3 ADD SWAP1 POP SWAP2 SWAP1 POP JUMP JUMPDEST PUSH0 PUSH2 0x228F DUP3 PUSH2 0x222A JUMP JUMPDEST PUSH2 0x2299 DUP2 DUP6 PUSH2 0x2234 JUMP JUMPDEST SWAP4 POP PUSH2 0x22A4 DUP4 PUSH2 0x2244 JUMP JUMPDEST DUP1 PUSH0 JUMPDEST DUP4 DUP2 LT ISZERO PUSH2 0x22D4 JUMPI DUP2 MLOAD PUSH2 0x22BB DUP9 DUP3 PUSH2 0x2262 JUMP JUMPDEST SWAP8 POP PUSH2 0x22C6 DUP4 PUSH2 0x2279 JUMP JUMPDEST SWAP3 POP POP PUSH1 0x1 DUP2 ADD SWAP1 POP PUSH2 0x22A7 JUMP JUMPDEST POP DUP6 SWAP4 POP POP POP POP SWAP3 SWAP2 POP POP JUMP JUMPDEST PUSH0 PUSH1 0x20 DUP3 ADD SWAP1 POP DUP2 DUP2 SUB PUSH0 DUP4 ADD MSTORE PUSH2 0x22F9 DUP2 DUP5 PUSH2 0x2285 JUMP JUMPDEST SWAP1 POP SWAP3 SWAP2 POP POP JUMP JUMPDEST PUSH2 0x230A DUP2 PUSH2 0x1CC5 JUMP JUMPDEST DUP2 EQ PUSH2 0x2314 JUMPI PUSH0 PUSH0 REVERT JUMPDEST POP JUMP JUMPDEST PUSH0 DUP2 CALLDATALOAD SWAP1 POP PUSH2 0x2325 DUP2 PUSH2 0x2301 JUMP JUMPDEST SWAP3 SWAP2 POP POP JUMP JUMPDEST PUSH0 PUSH0 PUSH1 0x40 DUP4 DUP6 SUB SLT ISZERO PUSH2 0x2341 JUMPI PUSH2 0x2340 PUSH2 0x1B7B JUMP JUMPDEST JUMPDEST PUSH0 PUSH2 0x234E DUP6 DUP3 DUP7 ADD PUSH2 0x1BC9 JUMP JUMPDEST SWAP3 POP POP PUSH1 0x20 PUSH2 0x235F DUP6 DUP3 DUP7 ADD PUSH2 0x2317 JUMP JUMPDEST SWAP2 POP POP SWAP3 POP SWAP3 SWAP1 POP JUMP JUMPDEST PUSH0 PUSH0 PUSH1 0x40 DUP4 DUP6 SUB SLT ISZERO PUSH2 0x237F JUMPI PUSH2 0x237E PUSH2 0x1B7B JUMP JUMPDEST JUMPDEST PUSH0 PUSH2 0x238C DUP6 DUP3 DUP7 ADD PUSH2 0x1BF3 JUMP JUMPDEST SWAP3 POP POP PUSH1 0x20 PUSH2 0x239D DUP6 DUP3 DUP7 ADD PUSH2 0x1BF3 JUMP JUMPDEST SWAP2 POP POP SWAP3 POP SWAP3 SWAP1 POP JUMP JUMPDEST PUSH0 PUSH0 PUSH1 0x40 DUP4 DUP6 SUB SLT ISZERO PUSH2 0x23BD JUMPI PUSH2 0x23BC PUSH2 0x1B7B JUMP JUMPDEST JUMPDEST PUSH0 PUSH2 0x23CA DUP6 DUP3 DUP7 ADD PUSH2 0x1BC9 JUMP JUMPDEST SWAP3 POP POP PUSH1 0x20 PUSH2 0x23DB DUP6 DUP3 DUP7 ADD PUSH2 0x1BC9 JUMP JUMPDEST SWAP2 POP POP SWAP3 POP SWAP3 SWAP1 POP JUMP JUMPDEST PUSH0 PUSH0 PUSH0 PUSH0 PUSH0 PUSH1 0xA0 DUP7 DUP9 SUB SLT ISZERO PUSH2 0x23FE JUMPI PUSH2 0x23FD PUSH2 0x1B7B JUMP JUMPDEST JUMPDEST PUSH0 PUSH2 0x240B DUP9 DUP3 DUP10 ADD PUSH2 0x1BC9 JUMP JUMPDEST SWAP6 POP POP PUSH1 0x20 PUSH2 0x241C DUP9 DUP3 DUP10 ADD PUSH2 0x1BC9 JUMP JUMPDEST SWAP5 POP POP PUSH1 0x40 PUSH2 0x242D DUP9 DUP3 DUP10 ADD PUSH2 0x1BF3 JUMP JUMPDEST SWAP4 POP POP PUSH1 0x60 PUSH2 0x243E DUP9 DUP3 DUP10 ADD PUSH2 0x1BF3 JUMP JUMPDEST SWAP3 POP POP PUSH1 0x80 DUP7 ADD CALLDATALOAD PUSH8 0xFFFFFFFFFFFFFFFF DUP2 GT ISZERO PUSH2 0x245F JUMPI PUSH2 0x245E PUSH2 0x1B7F JUMP JUMPDEST JUMPDEST PUSH2 0x246B DUP9 DUP3 DUP10 ADD PUSH2 0x1E07 JUMP JUMPDEST SWAP2 POP POP SWAP3 SWAP6 POP SWAP3 SWAP6 SWAP1 SWAP4 POP JUMP JUMPDEST PUSH32 0x546F6B656E20494420646F6573206E6F74206578697374000000000000000000 PUSH0 DUP3 ADD MSTORE POP JUMP JUMPDEST PUSH0 PUSH2 0x24AC PUSH1 0x17 DUP4 PUSH2 0x1ED5 JUMP JUMPDEST SWAP2 POP PUSH2 0x24B7 DUP3 PUSH2 0x2478 JUMP JUMPDEST PUSH1 0x20 DUP3 ADD SWAP1 POP SWAP2 SWAP1 POP JUMP JUMPDEST PUSH0 PUSH1 0x20 DUP3 ADD SWAP1 POP DUP2 DUP2 SUB PUSH0 DUP4 ADD MSTORE PUSH2 0x24D9 DUP2 PUSH2 0x24A0 JUMP JUMPDEST SWAP1 POP SWAP2 SWAP1 POP JUMP JUMPDEST PUSH32 0x4E487B7100000000000000000000000000000000000000000000000000000000 PUSH0 MSTORE PUSH1 0x11 PUSH1 0x4 MSTORE PUSH1 0x24 PUSH0 REVERT JUMPDEST PUSH0 PUSH2 0x2517 DUP3 PUSH2 0x1B41 JUMP JUMPDEST SWAP2 POP PUSH2 0x2522 DUP4 PUSH2 0x1B41 JUMP JUMPDEST SWAP3 POP DUP3 DUP3 ADD SWAP1 POP DUP1 DUP3 GT ISZERO PUSH2 0x253A JUMPI PUSH2 0x2539 PUSH2 0x24E0 JUMP JUMPDEST JUMPDEST SWAP3 SWAP2 POP POP JUMP JUMPDEST PUSH32 0x4D696E74696E6720776F756C6420657863656564206D617820737570706C7900 PUSH0 DUP3 ADD MSTORE POP JUMP JUMPDEST PUSH0 PUSH2 0x2574 PUSH1 0x1F DUP4 PUSH2 0x1ED5 JUMP JUMPDEST SWAP2 POP PUSH2 0x257F DUP3 PUSH2 0x2540 JUMP JUMPDEST PUSH1 0x20 DUP3 ADD SWAP1 POP SWAP2 SWAP1 POP JUMP JUMPDEST PUSH0 PUSH1 0x20 DUP3 ADD SWAP1 POP DUP2 DUP2 SUB PUSH0 DUP4 ADD MSTORE PUSH2 0x25A1 DUP2 PUSH2 0x2568 JUMP JUMPDEST SWAP1 POP SWAP2 SWAP1 POP JUMP JUMPDEST PUSH32 0x4E487B7100000000000000000000000000000000000000000000000000000000 PUSH0 MSTORE PUSH1 0x22 PUSH1 0x4 MSTORE PUSH1 0x24 PUSH0 REVERT JUMPDEST PUSH0 PUSH1 0x2 DUP3 DIV SWAP1 POP PUSH1 0x1 DUP3 AND DUP1 PUSH2 0x25EC JUMPI PUSH1 0x7F DUP3 AND SWAP2 POP JUMPDEST PUSH1 0x20 DUP3 LT DUP2 SUB PUSH2 0x25FF JUMPI PUSH2 0x25FE PUSH2 0x25A8 JUMP JUMPDEST JUMPDEST POP SWAP2 SWAP1 POP JUMP JUMPDEST PUSH2 0x260E DUP2 PUSH2 0x1BA2 JUMP JUMPDEST DUP3 MSTORE POP POP JUMP JUMPDEST PUSH0 PUSH1 0x40 DUP3 ADD SWAP1 POP PUSH2 0x2627 PUSH0 DUP4 ADD DUP6 PUSH2 0x2605 JUMP JUMPDEST PUSH2 0x2634 PUSH1 0x20 DUP4 ADD DUP5 PUSH2 0x2605 JUMP JUMPDEST SWAP4 SWAP3 POP POP POP JUMP JUMPDEST PUSH0 PUSH1 0x40 DUP3 ADD SWAP1 POP PUSH2 0x264E PUSH0 DUP4 ADD DUP6 PUSH2 0x1B4A JUMP JUMPDEST PUSH2 0x265B PUSH1 0x20 DUP4 ADD DUP5 PUSH2 0x1B4A JUMP JUMPDEST SWAP4 SWAP3 POP POP POP JUMP JUMPDEST PUSH32 0x4E487B7100000000000000000000000000000000000000000000000000000000 PUSH0 MSTORE PUSH1 0x32 PUSH1 0x4 MSTORE PUSH1 0x24 PUSH0 REVERT JUMPDEST PUSH32 0x4D617820737570706C79206D7573742062652067726561746572207468616E20 PUSH0 DUP3 ADD MSTORE PUSH32 0x7A65726F00000000000000000000000000000000000000000000000000000000 PUSH1 0x20 DUP3 ADD MSTORE POP JUMP JUMPDEST PUSH0 PUSH2 0x26E9 PUSH1 0x24 DUP4 PUSH2 0x1ED5 JUMP JUMPDEST SWAP2 POP PUSH2 0x26F4 DUP3 PUSH2 0x268F JUMP JUMPDEST PUSH1 0x40 DUP3 ADD SWAP1 POP SWAP2 SWAP1 POP JUMP JUMPDEST PUSH0 PUSH1 0x20 DUP3 ADD SWAP1 POP DUP2 DUP2 SUB PUSH0 DUP4 ADD MSTORE PUSH2 0x2716 DUP2 PUSH2 0x26DD JUMP JUMPDEST SWAP1 POP SWAP2 SWAP1 POP JUMP JUMPDEST PUSH32 0x496E697469616C20737570706C792063616E6E6F7420657863656564206D6178 PUSH0 DUP3 ADD MSTORE PUSH32 0x20737570706C7900000000000000000000000000000000000000000000000000 PUSH1 0x20 DUP3 ADD MSTORE POP JUMP JUMPDEST PUSH0 PUSH2 0x2777 PUSH1 0x27 DUP4 PUSH2 0x1ED5 JUMP JUMPDEST SWAP2 POP PUSH2 0x2782 DUP3 PUSH2 0x271D JUMP JUMPDEST PUSH1 0x40 DUP3 ADD SWAP1 POP SWAP2 SWAP1 POP JUMP JUMPDEST PUSH0 PUSH1 0x20 DUP3 ADD SWAP1 POP DUP2 DUP2 SUB PUSH0 DUP4 ADD MSTORE PUSH2 0x27A4 DUP2 PUSH2 0x276B JUMP JUMPDEST SWAP1 POP SWAP2 SWAP1 POP JUMP JUMPDEST PUSH0 PUSH2 0x27B5 DUP3 PUSH2 0x1B41 JUMP JUMPDEST SWAP2 POP PUSH32 0xFFFFFFFFFFFFFFFFFFFFFFFFFFFFFFFFFFFFFFFFFFFFFFFFFFFFFFFFFFFFFFFF DUP3 SUB PUSH2 0x27E7 JUMPI PUSH2 0x27E6 PUSH2 0x24E0 JUMP JUMPDEST JUMPDEST PUSH1 0x1 DUP3 ADD SWAP1 POP SWAP2 SWAP1 POP JUMP JUMPDEST PUSH32 0x43616C6C657220646F6573206E6F74206F776E207468697320746F6B656E2049 PUSH0 DUP3 ADD MSTORE PUSH32 0x4400000000000000000000000000000000000000000000000000000000000000 PUSH1 0x20 DUP3 ADD MSTORE POP JUMP JUMPDEST PUSH0 PUSH2 0x284C PUSH1 0x21 DUP4 PUSH2 0x1ED5 JUMP JUMPDEST SWAP2 POP PUSH2 0x2857 DUP3 PUSH2 0x27F2 JUMP JUMPDEST PUSH1 0x40 DUP3 ADD SWAP1 POP SWAP2 SWAP1 POP JUMP JUMPDEST PUSH0 PUSH1 0x20 DUP3 ADD SWAP1 POP DUP2 DUP2 SUB PUSH0 DUP4 ADD MSTORE PUSH2 0x2879 DUP2 PUSH2 0x2840 JUMP JUMPDEST SWAP1 POP SWAP2 SWAP1 POP JUMP JUMPDEST PUSH32 0x56657374696E6720706572696F64206E6F742079657420636F6D706C65746564 PUSH0 DUP3 ADD MSTORE POP JUMP JUMPDEST PUSH0 PUSH2 0x28B4 PUSH1 0x20 DUP4 PUSH2 0x1ED5 JUMP JUMPDEST SWAP2 POP PUSH2 0x28BF DUP3 PUSH2 0x2880 JUMP JUMPDEST PUSH1 0x20 DUP3 ADD SWAP1 POP SWAP2 SWAP1 POP JUMP JUMPDEST PUSH0 PUSH1 0x20 DUP3 ADD SWAP1 POP DUP2 DUP2 SUB PUSH0 DUP4 ADD MSTORE PUSH2 0x28E1 DUP2 PUSH2 0x28A8 JUMP JUMPDEST SWAP1 POP SWAP2 SWAP1 POP JUMP JUMPDEST PUSH32 0x5769746864726177616C20696E74657276616C206E6F742079657420656C6170 PUSH0 DUP3 ADD MSTORE PUSH32 0x7365640000000000000000000000000000000000000000000000000000000000 PUSH1 0x20 DUP3 ADD MSTORE POP JUMP JUMPDEST PUSH0 PUSH2 0x2942 PUSH1 0x23 DUP4 PUSH2 0x1ED5 JUMP JUMPDEST SWAP2 POP PUSH2 0x294D DUP3 PUSH2 0x28E8 JUMP JUMPDEST PUSH1 0x40 DUP3 ADD SWAP1 POP SWAP2 SWAP1 POP JUMP JUMPDEST PUSH0 PUSH1 0x20 DUP3 ADD SWAP1 POP DUP2 DUP2 SUB PUSH0 DUP4 ADD MSTORE PUSH2 0x296F DUP2 PUSH2 0x2936 JUMP JUMPDEST SWAP1 POP SWAP2 SWAP1 POP JUMP JUMPDEST PUSH0 PUSH1 0x20 DUP3 ADD SWAP1 POP PUSH2 0x2989 PUSH0 DUP4 ADD DUP5 PUSH2 0x2605 JUMP JUMPDEST SWAP3 SWAP2 POP POP JUMP JUMPDEST PUSH0 DUP2 MLOAD SWAP1 POP PUSH2 0x299D DUP2 PUSH2 0x1BDD JUMP JUMPDEST SWAP3 SWAP2 POP POP JUMP JUMPDEST PUSH0 PUSH1 0x20 DUP3 DUP5 SUB SLT ISZERO PUSH2 0x29B8 JUMPI PUSH2 0x29B7 PUSH2 0x1B7B JUMP JUMPDEST JUMPDEST PUSH0 PUSH2 0x29C5 DUP5 DUP3 DUP6 ADD PUSH2 0x298F JUMP JUMPDEST SWAP2 POP POP SWAP3 SWAP2 POP POP JUMP JUMPDEST PUSH0 PUSH2 0x29D8 DUP3 PUSH2 0x1B41 JUMP JUMPDEST SWAP2 POP PUSH2 0x29E3 DUP4 PUSH2 0x1B41 JUMP JUMPDEST SWAP3 POP DUP3 DUP3 MUL PUSH2 0x29F1 DUP2 PUSH2 0x1B41 JUMP JUMPDEST SWAP2 POP DUP3 DUP3 DIV DUP5 EQ DUP4 ISZERO OR PUSH2 0x2A08 JUMPI PUSH2 0x2A07 PUSH2 0x24E0 JUMP JUMPDEST JUMPDEST POP SWAP3 SWAP2 POP POP JUMP JUMPDEST PUSH32 0x4E487B7100000000000000000000000000000000000000000000000000000000 PUSH0 MSTORE PUSH1 0x12 PUSH1 0x4 MSTORE PUSH1 0x24 PUSH0 REVERT JUMPDEST PUSH0 PUSH2 0x2A46 DUP3 PUSH2 0x1B41 JUMP JUMPDEST SWAP2 POP PUSH2 0x2A51 DUP4 PUSH2 0x1B41 JUMP JUMPDEST SWAP3 POP DUP3 PUSH2 0x2A61 JUMPI PUSH2 0x2A60 PUSH2 0x2A0F JUMP JUMPDEST JUMPDEST DUP3 DUP3 DIV SWAP1 POP SWAP3 SWAP2 POP POP JUMP JUMPDEST PUSH32 0x4E6F20746F6B656E7320617661696C61626C6520666F72207769746864726177 PUSH0 DUP3 ADD MSTORE PUSH32 0x616C000000000000000000000000000000000000000000000000000000000000 PUSH1 0x20 DUP3 ADD MSTORE POP JUMP JUMPDEST PUSH0 PUSH2 0x2AC6 PUSH1 0x22 DUP4 PUSH2 0x1ED5 JUMP JUMPDEST SWAP2 POP PUSH2 0x2AD1 DUP3 PUSH2 0x2A6C JUMP JUMPDEST PUSH1 0x40 DUP3 ADD SWAP1 POP SWAP2 SWAP1 POP JUMP JUMPDEST PUSH0 PUSH1 0x20 DUP3 ADD SWAP1 POP DUP2 DUP2 SUB PUSH0 DUP4 ADD MSTORE PUSH2 0x2AF3 DUP2 PUSH2 0x2ABA JUMP JUMPDEST SWAP1 POP SWAP2 SWAP1 POP JUMP JUMPDEST PUSH0 PUSH1 0x40 DUP3 ADD SWAP1 POP PUSH2 0x2B0D PUSH0 DUP4 ADD DUP6 PUSH2 0x2605 JUMP JUMPDEST PUSH2 0x2B1A PUSH1 0x20 DUP4 ADD DUP5 PUSH2 0x1B4A JUMP JUMPDEST SWAP4 SWAP3 POP POP POP JUMP JUMPDEST PUSH0 DUP2 MLOAD SWAP1 POP PUSH2 0x2B2F DUP2 PUSH2 0x2301 JUMP JUMPDEST SWAP3 SWAP2 POP POP JUMP JUMPDEST PUSH0 PUSH1 0x20 DUP3 DUP5 SUB SLT ISZERO PUSH2 0x2B4A JUMPI PUSH2 0x2B49 PUSH2 0x1B7B JUMP JUMPDEST JUMPDEST PUSH0 PUSH2 0x2B57 DUP5 DUP3 DUP6 ADD PUSH2 0x2B21 JUMP JUMPDEST SWAP2 POP POP SWAP3 SWAP2 POP POP JUMP JUMPDEST PUSH32 0x496E73756666696369656E742062616C616E636520746F206275726E00000000 PUSH0 DUP3 ADD MSTORE POP JUMP JUMPDEST PUSH0 PUSH2 0x2B94 PUSH1 0x1C DUP4 PUSH2 0x1ED5 JUMP JUMPDEST SWAP2 POP PUSH2 0x2B9F DUP3 PUSH2 0x2B60 JUMP JUMPDEST PUSH1 0x20 DUP3 ADD SWAP1 POP SWAP2 SWAP1 POP JUMP JUMPDEST PUSH0 PUSH1 0x20 DUP3 ADD SWAP1 POP DUP2 DUP2 SUB PUSH0 DUP4 ADD MSTORE PUSH2 0x2BC1 DUP2 PUSH2 0x2B88 JUMP JUMPDEST SWAP1 POP SWAP2 SWAP1 POP JUMP JUMPDEST PUSH0 PUSH2 0x2BD2 DUP3 PUSH2 0x1B41 JUMP JUMPDEST SWAP2 POP PUSH2 0x2BDD DUP4 PUSH2 0x1B41 JUMP JUMPDEST SWAP3 POP DUP3 DUP3 SUB SWAP1 POP DUP2 DUP2 GT ISZERO PUSH2 0x2BF5 JUMPI PUSH2 0x2BF4 PUSH2 0x24E0 JUMP JUMPDEST JUMPDEST SWAP3 SWAP2 POP POP JUMP JUMPDEST PUSH0 PUSH1 0x80 DUP3 ADD SWAP1 POP PUSH2 0x2C0E PUSH0 DUP4 ADD DUP8 PUSH2 0x2605 JUMP JUMPDEST PUSH2 0x2C1B PUSH1 0x20 DUP4 ADD DUP7 PUSH2 0x1B4A JUMP JUMPDEST PUSH2 0x2C28 PUSH1 0x40 DUP4 ADD DUP6 PUSH2 0x1B4A JUMP JUMPDEST PUSH2 0x2C35 PUSH1 0x60 DUP4 ADD DUP5 PUSH2 0x1B4A JUMP JUMPDEST SWAP6 SWAP5 POP POP POP POP POP JUMP JUMPDEST PUSH0 PUSH1 0x40 DUP3 ADD SWAP1 POP DUP2 DUP2 SUB PUSH0 DUP4 ADD MSTORE PUSH2 0x2C56 DUP2 DUP6 PUSH2 0x2285 JUMP JUMPDEST SWAP1 POP DUP2 DUP2 SUB PUSH1 0x20 DUP4 ADD MSTORE PUSH2 0x2C6A DUP2 DUP5 PUSH2 0x2285 JUMP JUMPDEST SWAP1 POP SWAP4 SWAP3 POP POP POP JUMP JUMPDEST PUSH0 DUP2 MLOAD SWAP1 POP SWAP2 SWAP1 POP JUMP JUMPDEST PUSH0 DUP3 DUP3 MSTORE PUSH1 0x20 DUP3 ADD SWAP1 POP SWAP3 SWAP2 POP POP JUMP JUMPDEST PUSH0 PUSH2 0x2C97 DUP3 PUSH2 0x2C73 JUMP JUMPDEST PUSH2 0x2CA1 DUP2 DUP6 PUSH2 0x2C7D JUMP JUMPDEST SWAP4 POP PUSH2 0x2CB1 DUP2 DUP6 PUSH1 0x20 DUP7 ADD PUSH2 0x1EE5 JUMP JUMPDEST PUSH2 0x2CBA DUP2 PUSH2 0x1D00 JUMP JUMPDEST DUP5 ADD SWAP2 POP POP SWAP3 SWAP2 POP POP JUMP JUMPDEST PUSH0 PUSH1 0xA0 DUP3 ADD SWAP1 POP PUSH2 0x2CD8 PUSH0 DUP4 ADD DUP9 PUSH2 0x2605 JUMP JUMPDEST PUSH2 0x2CE5 PUSH1 0x20 DUP4 ADD DUP8 PUSH2 0x2605 JUMP JUMPDEST PUSH2 0x2CF2 PUSH1 0x40 DUP4 ADD DUP7 PUSH2 0x1B4A JUMP JUMPDEST PUSH2 0x2CFF PUSH1 0x60 DUP4 ADD DUP6 PUSH2 0x1B4A JUMP JUMPDEST DUP2 DUP2 SUB PUSH1 0x80 DUP4 ADD MSTORE PUSH2 0x2D11 DUP2 DUP5 PUSH2 0x2C8D JUMP JUMPDEST SWAP1 POP SWAP7 SWAP6 POP POP POP POP POP POP JUMP JUMPDEST PUSH0 DUP2 MLOAD SWAP1 POP PUSH2 0x2D2B DUP2 PUSH2 0x1C70 JUMP JUMPDEST SWAP3 SWAP2 POP POP JUMP JUMPDEST PUSH0 PUSH1 0x20 DUP3 DUP5 SUB SLT ISZERO PUSH2 0x2D46 JUMPI PUSH2 0x2D45 PUSH2 0x1B7B JUMP JUMPDEST JUMPDEST PUSH0 PUSH2 0x2D53 DUP5 DUP3 DUP6 ADD PUSH2 0x2D1D JUMP JUMPDEST SWAP2 POP POP SWAP3 SWAP2 POP POP JUMP JUMPDEST PUSH0 PUSH1 0xA0 DUP3 ADD SWAP1 POP PUSH2 0x2D6F PUSH0 DUP4 ADD DUP9 PUSH2 0x2605 JUMP JUMPDEST PUSH2 0x2D7C PUSH1 0x20 DUP4 ADD DUP8 PUSH2 0x2605 JUMP JUMPDEST DUP2 DUP2 SUB PUSH1 0x40 DUP4 ADD MSTORE PUSH2 0x2D8E DUP2 DUP7 PUSH2 0x2285 JUMP JUMPDEST SWAP1 POP DUP2 DUP2 SUB PUSH1 0x60 DUP4 ADD MSTORE PUSH2 0x2DA2 DUP2 DUP6 PUSH2 0x2285 JUMP JUMPDEST SWAP1 POP DUP2 DUP2 SUB PUSH1 0x80 DUP4 ADD MSTORE PUSH2 0x2DB6 DUP2 DUP5 PUSH2 0x2C8D JUMP JUMPDEST SWAP1 POP SWAP7 SWAP6 POP POP POP POP POP POP JUMP INVALID LOG2 PUSH5 0x6970667358 0x22 SLT KECCAK256 0xA9 NOT PUSH9 0x58154B2752D74C1EE PUSH23 0xC42F72A626FC5AFDC1C2345C01BB8CD20C16E564736F6C PUSH4 0x4300081C STOP CALLER PUSH10 0x7066733A2F2F6261666B PUSH19 0x6569667063366F6461336571667136706C626F PUSH19 0x7074716B6E35736665777837786B793434626C PUSH27 0x6969777A79346E7562783776666500000000000000000000000000 "
		},
		"gasEstimates": {
			"creation": {
				"codeDepositCost": "2353600",
				"executionCost": "infinite",
				"totalCost": "infinite"
			},
			"external": {
				"VESTING_PERIOD()": "393",
				"WITHDRAWAL_INTERVAL()": "392",
				"WITHDRAWAL_PERCENTAGE()": "391",
				"balanceOf(address,uint256)": "infinite",
				"balanceOfBatch(address[],uint256[])": "infinite",
				"burn(uint256,uint256)": "infinite",
				"createToken(uint256,uint256,bytes)": "infinite",
				"currentTokenId()": "2449",
				"isApprovedForAll(address,address)": "infinite",
				"lastWithdrawalTime(uint256)": "infinite",
				"maxSupply(uint256)": "infinite",
				"mint(uint256,uint256,bytes)": "infinite",
				"mintedSupply(uint256)": "infinite",
				"safeBatchTransferFrom(address,address,uint256[],uint256[],bytes)": "infinite",
				"safeTransferFrom(address,address,uint256,uint256,bytes)": "infinite",
				"setApprovalForAll(address,bool)": "infinite",
				"supportsInterface(bytes4)": "853",
				"uri(uint256)": "infinite",
				"vestingStart(uint256)": "infinite",
				"withdrawERC20(address,uint256)": "infinite"
			}
		},
		"methodIdentifiers": {
			"VESTING_PERIOD()": "0197d972",
			"WITHDRAWAL_INTERVAL()": "4c64c030",
			"WITHDRAWAL_PERCENTAGE()": "dabaf424",
			"balanceOf(address,uint256)": "00fdd58e",
			"balanceOfBatch(address[],uint256[])": "4e1273f4",
			"burn(uint256,uint256)": "b390c0ab",
			"createToken(uint256,uint256,bytes)": "5e05b02f",
			"currentTokenId()": "009a9b7b",
			"isApprovedForAll(address,address)": "e985e9c5",
			"lastWithdrawalTime(uint256)": "54e00c43",
			"maxSupply(uint256)": "869f7594",
			"mint(uint256,uint256,bytes)": "08dc9f42",
			"mintedSupply(uint256)": "919956ef",
			"safeBatchTransferFrom(address,address,uint256[],uint256[],bytes)": "2eb2c2d6",
			"safeTransferFrom(address,address,uint256,uint256,bytes)": "f242432a",
			"setApprovalForAll(address,bool)": "a22cb465",
			"supportsInterface(bytes4)": "01ffc9a7",
			"uri(uint256)": "0e89341c",
			"vestingStart(uint256)": "a82f911f",
			"withdrawERC20(address,uint256)": "a1db9782"
		}
	},
	"abi": [
		{
			"inputs": [
				{
					"internalType": "string",
					"name": "uri",
					"type": "string"
				}
			],
			"stateMutability": "nonpayable",
			"type": "constructor"
		},
		{
			"inputs": [
				{
					"internalType": "address",
					"name": "sender",
					"type": "address"
				},
				{
					"internalType": "uint256",
					"name": "balance",
					"type": "uint256"
				},
				{
					"internalType": "uint256",
					"name": "needed",
					"type": "uint256"
				},
				{
					"internalType": "uint256",
					"name": "tokenId",
					"type": "uint256"
				}
			],
			"name": "ERC1155InsufficientBalance",
			"type": "error"
		},
		{
			"inputs": [
				{
					"internalType": "address",
					"name": "approver",
					"type": "address"
				}
			],
			"name": "ERC1155InvalidApprover",
			"type": "error"
		},
		{
			"inputs": [
				{
					"internalType": "uint256",
					"name": "idsLength",
					"type": "uint256"
				},
				{
					"internalType": "uint256",
					"name": "valuesLength",
					"type": "uint256"
				}
			],
			"name": "ERC1155InvalidArrayLength",
			"type": "error"
		},
		{
			"inputs": [
				{
					"internalType": "address",
					"name": "operator",
					"type": "address"
				}
			],
			"name": "ERC1155InvalidOperator",
			"type": "error"
		},
		{
			"inputs": [
				{
					"internalType": "address",
					"name": "receiver",
					"type": "address"
				}
			],
			"name": "ERC1155InvalidReceiver",
			"type": "error"
		},
		{
			"inputs": [
				{
					"internalType": "address",
					"name": "sender",
					"type": "address"
				}
			],
			"name": "ERC1155InvalidSender",
			"type": "error"
		},
		{
			"inputs": [
				{
					"internalType": "address",
					"name": "operator",
					"type": "address"
				},
				{
					"internalType": "address",
					"name": "owner",
					"type": "address"
				}
			],
			"name": "ERC1155MissingApprovalForAll",
			"type": "error"
		},
		{
			"anonymous": false,
			"inputs": [
				{
					"indexed": true,
					"internalType": "address",
					"name": "account",
					"type": "address"
				},
				{
					"indexed": true,
					"internalType": "address",
					"name": "operator",
					"type": "address"
				},
				{
					"indexed": false,
					"internalType": "bool",
					"name": "approved",
					"type": "bool"
				}
			],
			"name": "ApprovalForAll",
			"type": "event"
		},
		{
			"anonymous": false,
			"inputs": [
				{
					"indexed": true,
					"internalType": "address",
					"name": "operator",
					"type": "address"
				},
				{
					"indexed": true,
					"internalType": "address",
					"name": "from",
					"type": "address"
				},
				{
					"indexed": true,
					"internalType": "address",
					"name": "to",
					"type": "address"
				},
				{
					"indexed": false,
					"internalType": "uint256[]",
					"name": "ids",
					"type": "uint256[]"
				},
				{
					"indexed": false,
					"internalType": "uint256[]",
					"name": "values",
					"type": "uint256[]"
				}
			],
			"name": "TransferBatch",
			"type": "event"
		},
		{
			"anonymous": false,
			"inputs": [
				{
					"indexed": true,
					"internalType": "address",
					"name": "operator",
					"type": "address"
				},
				{
					"indexed": true,
					"internalType": "address",
					"name": "from",
					"type": "address"
				},
				{
					"indexed": true,
					"internalType": "address",
					"name": "to",
					"type": "address"
				},
				{
					"indexed": false,
					"internalType": "uint256",
					"name": "id",
					"type": "uint256"
				},
				{
					"indexed": false,
					"internalType": "uint256",
					"name": "value",
					"type": "uint256"
				}
			],
			"name": "TransferSingle",
			"type": "event"
		},
		{
			"anonymous": false,
			"inputs": [
				{
					"indexed": false,
					"internalType": "string",
					"name": "value",
					"type": "string"
				},
				{
					"indexed": true,
					"internalType": "uint256",
					"name": "id",
					"type": "uint256"
				}
			],
			"name": "URI",
			"type": "event"
		},
		{
			"inputs": [],
			"name": "VESTING_PERIOD",
			"outputs": [
				{
					"internalType": "uint256",
					"name": "",
					"type": "uint256"
				}
			],
			"stateMutability": "view",
			"type": "function"
		},
		{
			"inputs": [],
			"name": "WITHDRAWAL_INTERVAL",
			"outputs": [
				{
					"internalType": "uint256",
					"name": "",
					"type": "uint256"
				}
			],
			"stateMutability": "view",
			"type": "function"
		},
		{
			"inputs": [],
			"name": "WITHDRAWAL_PERCENTAGE",
			"outputs": [
				{
					"internalType": "uint256",
					"name": "",
					"type": "uint256"
				}
			],
			"stateMutability": "view",
			"type": "function"
		},
		{
			"inputs": [
				{
					"internalType": "address",
					"name": "account",
					"type": "address"
				},
				{
					"internalType": "uint256",
					"name": "id",
					"type": "uint256"
				}
			],
			"name": "balanceOf",
			"outputs": [
				{
					"internalType": "uint256",
					"name": "",
					"type": "uint256"
				}
			],
			"stateMutability": "view",
			"type": "function"
		},
		{
			"inputs": [
				{
					"internalType": "address[]",
					"name": "accounts",
					"type": "address[]"
				},
				{
					"internalType": "uint256[]",
					"name": "ids",
					"type": "uint256[]"
				}
			],
			"name": "balanceOfBatch",
			"outputs": [
				{
					"internalType": "uint256[]",
					"name": "",
					"type": "uint256[]"
				}
			],
			"stateMutability": "view",
			"type": "function"
		},
		{
			"inputs": [
				{
					"internalType": "uint256",
					"name": "_tokenId",
					"type": "uint256"
				},
				{
					"internalType": "uint256",
					"name": "_amount",
					"type": "uint256"
				}
			],
			"name": "burn",
			"outputs": [],
			"stateMutability": "nonpayable",
			"type": "function"
		},
		{
			"inputs": [
				{
					"internalType": "uint256",
					"name": "_initialSupply",
					"type": "uint256"
				},
				{
					"internalType": "uint256",
					"name": "_maxSupply",
					"type": "uint256"
				},
				{
					"internalType": "bytes",
					"name": "_data",
					"type": "bytes"
				}
			],
			"name": "createToken",
			"outputs": [],
			"stateMutability": "nonpayable",
			"type": "function"
		},
		{
			"inputs": [],
			"name": "currentTokenId",
			"outputs": [
				{
					"internalType": "uint256",
					"name": "",
					"type": "uint256"
				}
			],
			"stateMutability": "view",
			"type": "function"
		},
		{
			"inputs": [
				{
					"internalType": "address",
					"name": "account",
					"type": "address"
				},
				{
					"internalType": "address",
					"name": "operator",
					"type": "address"
				}
			],
			"name": "isApprovedForAll",
			"outputs": [
				{
					"internalType": "bool",
					"name": "",
					"type": "bool"
				}
			],
			"stateMutability": "view",
			"type": "function"
		},
		{
			"inputs": [
				{
					"internalType": "uint256",
					"name": "",
					"type": "uint256"
				}
			],
			"name": "lastWithdrawalTime",
			"outputs": [
				{
					"internalType": "uint256",
					"name": "",
					"type": "uint256"
				}
			],
			"stateMutability": "view",
			"type": "function"
		},
		{
			"inputs": [
				{
					"internalType": "uint256",
					"name": "",
					"type": "uint256"
				}
			],
			"name": "maxSupply",
			"outputs": [
				{
					"internalType": "uint256",
					"name": "",
					"type": "uint256"
				}
			],
			"stateMutability": "view",
			"type": "function"
		},
		{
			"inputs": [
				{
					"internalType": "uint256",
					"name": "_tokenId",
					"type": "uint256"
				},
				{
					"internalType": "uint256",
					"name": "_amount",
					"type": "uint256"
				},
				{
					"internalType": "bytes",
					"name": "_data",
					"type": "bytes"
				}
			],
			"name": "mint",
			"outputs": [],
			"stateMutability": "nonpayable",
			"type": "function"
		},
		{
			"inputs": [
				{
					"internalType": "uint256",
					"name": "",
					"type": "uint256"
				}
			],
			"name": "mintedSupply",
			"outputs": [
				{
					"internalType": "uint256",
					"name": "",
					"type": "uint256"
				}
			],
			"stateMutability": "view",
			"type": "function"
		},
		{
			"inputs": [
				{
					"internalType": "address",
					"name": "from",
					"type": "address"
				},
				{
					"internalType": "address",
					"name": "to",
					"type": "address"
				},
				{
					"internalType": "uint256[]",
					"name": "ids",
					"type": "uint256[]"
				},
				{
					"internalType": "uint256[]",
					"name": "values",
					"type": "uint256[]"
				},
				{
					"internalType": "bytes",
					"name": "data",
					"type": "bytes"
				}
			],
			"name": "safeBatchTransferFrom",
			"outputs": [],
			"stateMutability": "nonpayable",
			"type": "function"
		},
		{
			"inputs": [
				{
					"internalType": "address",
					"name": "from",
					"type": "address"
				},
				{
					"internalType": "address",
					"name": "to",
					"type": "address"
				},
				{
					"internalType": "uint256",
					"name": "id",
					"type": "uint256"
				},
				{
					"internalType": "uint256",
					"name": "value",
					"type": "uint256"
				},
				{
					"internalType": "bytes",
					"name": "data",
					"type": "bytes"
				}
			],
			"name": "safeTransferFrom",
			"outputs": [],
			"stateMutability": "nonpayable",
			"type": "function"
		},
		{
			"inputs": [
				{
					"internalType": "address",
					"name": "operator",
					"type": "address"
				},
				{
					"internalType": "bool",
					"name": "approved",
					"type": "bool"
				}
			],
			"name": "setApprovalForAll",
			"outputs": [],
			"stateMutability": "nonpayable",
			"type": "function"
		},
		{
			"inputs": [
				{
					"internalType": "bytes4",
					"name": "interfaceId",
					"type": "bytes4"
				}
			],
			"name": "supportsInterface",
			"outputs": [
				{
					"internalType": "bool",
					"name": "",
					"type": "bool"
				}
			],
			"stateMutability": "view",
			"type": "function"
		},
		{
			"inputs": [
				{
					"internalType": "uint256",
					"name": "",
					"type": "uint256"
				}
			],
			"name": "uri",
			"outputs": [
				{
					"internalType": "string",
					"name": "",
					"type": "string"
				}
			],
			"stateMutability": "view",
			"type": "function"
		},
		{
			"inputs": [
				{
					"internalType": "uint256",
					"name": "",
					"type": "uint256"
				}
			],
			"name": "vestingStart",
			"outputs": [
				{
					"internalType": "uint256",
					"name": "",
					"type": "uint256"
				}
			],
			"stateMutability": "view",
			"type": "function"
		},
		{
			"inputs": [
				{
					"internalType": "address",
					"name": "_tokenAddress",
					"type": "address"
				},
				{
					"internalType": "uint256",
					"name": "_tokenId",
					"type": "uint256"
				}
			],
			"name": "withdrawERC20",
			"outputs": [],
			"stateMutability": "nonpayable",
			"type": "function"
		}
	]
}